:020000041000EA
:10000000002008205D0100101B0100101D010010E0
:100010001101001011010010110100101101001058
:100020001901001019010010190100101F01001022
:10003000110100101901001021010010230100100E
:100040001101001011010010110100101101001028
:100050001101001011010010110100101101001018
:100060001101001011010010110100101101001008
:1000700011010010110100101101001011010010F8
:1000800011010010110100101101001011010010E8
:1000900011010010110100101101001011010010D8
:1000A00011010010110100101101001011010010C8
:1000B00011010010110100101101001011010010B8
:1000C00011010010110100101101001011010010A8
:1000D0001101001011010010110100101101001098
:1000E0001101001011010010110100101101001088
:1000F0001101001011010010110100101101001078
:100100001101001011010010110100101101001067
:10011000EFF30580103800BE00BE00BE00BE00BE7A
:1001200000BE00BEF2EB8871A05B0010C85B00103F
:10013000A001001090A31AE7D3DEFFFF42012110B7
:10014000FF01000028620000793512AB4FF000007B
:100150001E49086006C881F3088810474FF05040D8
:10016000006810B14FF00000F2E70DA40ECC00299A
:1001700002D000F012F8F9E71549164A002000E015
:1001800001C19142FCD11449884714498847144958
:10019000884700BEFDE701C901C29A42FBD3704700
:1001A000C85B001010010020A80800206063001048
:1001B00000000820000008206063001000100820E4
:1001C00000100820000000007047000008ED00E06B
:1001D000A8080020980C0020814D00105503001045
:1001E000794D0010F8B500BF064B0749C91A8910B0
:1001F00048BF0131491003D0044B0BB101481847E7
:10020000704700BFA8080020A808002000000000D8
:1002100008B5054B1BB105490548AFF30080BDE8A3
:100220000840FFF7E1BF00BF00000000D80B00202E
:100230006C56001000F04EBD30B50C4689B0054636
:1002400001F064FA4FF6FF7001F092FA022001F01B
:1002500087FA0CB3012C21D0114B20216846114A9A
:1002600004F05AFD6A462321142001F087FA2B4638
:10027000202168460C4A04F04FFD6A46552114209F
:1002800001F07CFA012001F06BFA8C211420074A5E
:1002900001F074FA09B030BD054BDEE7054BDCE731
:1002A000785600108856001094560010A056001082
:1002B000705600108056001030B502244FF6FF75BE
:1002C00083B001F023FA4FF6FF7001F051FA0220DB
:1002D00001F046FA37212A201A4A01F04FFA322358
:1002E00055226E211420CDE9005401F007F9204673
:1002F00001F036FA7F212020134A01F03FFA322321
:1003000055226E217520CDE9005401F0F7F8204602
:1003100001F026FA7F2181200C4A01F02FFA3223C6
:1003200055226E21D620CDE9005401F0E7F8204691
:1003300001F016FA7F21E220054A03B0BDE8304003
:1003400001F01CBAC85600107056001080560010FC
:10035000785600102DE9F04F02244FF6FF754FF04C
:1003600000098FB004F004FE954804F0C3FF00F0CC
:100370005FF900F041FE012000F01AFF01F086FA5B
:1003800001F09CF84FF6FF7001F0F2F901F0BEF9B0
:100390004FF6FF7001F0ECF9032001F0E1F928219C
:1003A000884A5F2001F0EAF9012001F0D9F95021D3
:1003B0004B20854A01F0E2F932238C2264215A2035
:1003C000CDE9005401F09AF8204601F0C9F97521F1
:1003D00066207E4A01F0D2F94FF0010BCA464E4624
:1003E000C8464D4606AF27E000F062F904A903A80D
:1003F000CDE9055501F0FAFB0446B0B1DDE9031281
:100400000120009705AB01F05BF876B9B8F1000F59
:1004100050D1059B5A3B8C2B07D8069B643B322B53
:1004200003D8FFF749FF4FF00108261E4FF03200B6
:1004300018BF012602F0DCFB4FF050431B6DDB07B9
:10044000D2D504F007FF12283DD0112848D0132838
:10045000CAD101F05BF94FF6FF7001F089F9022073
:1004600001F07EF937216E20594A01F087F94B4699
:100470002021584A384604F04FFC3A4669214B2067
:1004800001F07CF90224A0224FF6FF712D235020A9
:10049000CDE90014114601F031F8204601F060F971
:1004A000AE215C204C4A01F069F94FF0000A4FF090
:1004B000030899E7B8F1010F1DD0B8F1030F49D037
:1004C0004FF00208B1E701F021F94FF6FF7001F09B
:1004D0004FF9022001F044F937215F203F4AC4E779
:1004E00004F0B8FEB8F1020F81467FF47DAF5946A3
:1004F000FFF7A2FE78E7BAF1000F96D1059B132B08
:1005000093DD692B069E30DC6D2E8EDDA02E8CDCFB
:10051000D346760086EA0346314B9B6A5E40314BF8
:1005200086EA164603FB06F686EAD63659460020CA
:10053000FFF782FEA02004F085FE304604F082FE24
:10054000584604F07FFE4FF000094FF0010A4FF0CB
:1005500002086AE7059B503BA02B3FF666AF069B5F
:10056000A03B2D2B3FF661AF5BE7742B7FF75DAFB0
:10057000CA2B17DC6D2E7FF758AFA02E3FF755AF73
:100580004FF0010B164A1B04926A83EA460353405C
:10059000144E83EA134303FB06F6CBF1020B86EA03
:1005A000D636C3E7A3F1D60155293FF63EAF6D2EEF
:1005B0007FF73BAFA02E3FF738AF4FF0000BE1E7DE
:1005C00035020010DC560010E456001000570010F1
:1005D000305700101457001024570010085700100F
:1005E00000000B402D35EB7F4B070BD50538072856
:1005F00008D8DFE800F0040C0710070707080122FD
:10060000074B1A7070470122064B1A70704701227F
:10061000054B1A7070470122044B1A70704700BFD7
:10062000930C0020910C0020920C0020900C0020D4
:100630002DE9F04188B06C464FF001084FF00007FB
:10064000184B04AE0FCB8DE80F0054F8045B28461E
:1006500001F09EFC48EC445047EC4050B442F4D1C9
:100660004FF00006104B0FCB84E80F0054F8045BEA
:10067000284601F08DFC46EC44500022012128461A
:1006800001F00EFC094B01220421284601F01CFC5C
:1006900008AB9C42EAD104210A2008B0BDE8F04131
:1006A00001F0E0BB0458001014580010E9050010D8
:1006B00070B5604C82B023689BB95F4D2B78002BDE
:1006C00036D15E4D2B78002B40F086805C4D2B7828
:1006D000002B72D15B4D2B78002B40F0918002B043
:1006E00070BD00235849544E0A68554D013A0A60BE
:1006F000544852499A4233700B702B700370EEDCF1
:10070000022243EC4020032243EC40200B2243EC26
:100710004020042243EC40204C484D49026F92B2E5
:100720000A67426E02F001024A66236002B070BDA1
:1007300001230222236043EC4020052002F07EFCCE
:10074000B0F5DC1F46D3B3EE007A424BC00BA3FBDF
:10075000003007EE900AF8EEE77AFCEEE76ACDED9E
:10076000016A9DF8042006EE902AF8EEE66A77EE1C
:10077000E67A67EE877AFCEEE77ACDED017A9DF8AE
:10078000043043EA021340F6FF76304A304993665C
:100790005667136F002083F400639BB20B67536EA0
:1007A000DB4303F001034B6623682870002B96D0CF
:1007B0000522254B1A6002B070BD03210B234FF0B8
:1007C0000102216042EC4030052002F037FC224B50
:1007D000984228D21023D6E7022103234FF00102CA
:1007E000216042EC4030052002F028FC1B4B98426F
:1007F000F0D31B4BB3EE007AA3FB0030000CA8E74C
:1008000004234FF00102236042EC4030052002F047
:1008100015FCB0F5441FDDD3124BB3EE007AA3FBF9
:100820000030000D95E7104BB3EE007AA3FB0030CB
:10083000400D8EE7800B0020900C0020920C0020D1
:10084000910C0020930C0020CC0B002000800A406B
:1008500000900A409E92A7040030290000B02000BA
:10086000E9ECD4079D8297531D32E5C630B50446A6
:10087000C0070D4683B023D4A1075FD4620700F1FF
:100880009D80230700F1D880284602F0B1F90222AA
:100890004FF0000343EC4020032243EC40200B22A6
:1008A00043EC4020042243EC40208549854A0B6FED
:1008B0009BB213674B6E03F00103536603B030BD68
:1008C00002234FF0010242EC4030052002F0B6FB5B
:1008D000B0F5DC1FC0F0F2807B4BC00BA3FB0030F7
:1008E00007EE900AF8EEE77AFCEEE76ACDED016AD2
:1008F0009DF80420B3EE007A06EE902AF8EEE66A40
:1009000077EEE67A67EE877AFCEEE77ACDED017A4C
:100910009DF8043043EA021340F6FF70684A6949C3
:1009200093665067136F83F400639BB20B67536E3B
:10093000DB4303F001034B66A1079FD503234FF070
:10094000010242EC4030052002F078FB5F4B9842F8
:10095000C0F0AE805E4BB3EE007AA3FB0030000C1B
:1009600007EE900AF8EEE77AFCEEE76ACDED016A51
:100970009DF8042006EE902AF8EEE66A77EEE67A15
:1009800067EE877AFCEEE77ACDED017A9DF80430C8
:1009900043EA021340F6FF70494A4A49936650679A
:1009A000136F83F400639BB20B67536E62076FEAA9
:1009B000030303F001034B667FF563AF0B234FF096
:1009C000010242EC4030052002F038FB414B9842D6
:1009D00070D3414BB3EE007AA3FB0030400D07EE1D
:1009E000900AF8EEE77AFCEEE76ACDED016A9DF831
:1009F000042006EE902AF8EEE66A77EEE67A67EED5
:100A0000877AFCEEE77ACDED017A9DF8043043EA6F
:100A1000021340F6FF702A4A2A4993665067136F03
:100A200083F400639BB20B67536EDB4303F0010357
:100A30004B6623077FF528AF04234FF0010242ECF9
:100A40004030052002F0FAFAB0F5441F34D3234BAE
:100A5000B3EE007AA3FB0030000D07EE900AF8EE2B
:100A6000E77AFCEEE76ACDED016A9DF8042006EE18
:100A7000902AF8EEE66A77EEE67A67EE877AFCEE81
:100A8000E77ACDED017A9DF8043043EA021340F68F
:100A9000FF700B4A0B4993665067136F83F4006332
:100AA0009BB20B67536EDB4303F001034B66EBE62F
:100AB00010236FE71023ACE71023E8E710232BE7A0
:100AC00000800A4000900A409E92A70400B02000D7
:100AD000E9ECD407003029001D32E5C69D8297530A
:100AE000002310B40548064C0649074A23700370DA
:100AF0005DF8044B0B701370704700BF920C002020
:100B0000900C0020910C0020930C00202DE9F04F58
:100B1000404B83B0D3F82890924601900AB100234D
:100B200013703D4F3D4E3B783278DBB2BAB13C4C4E
:100B30003C4D227843F00203002A2FD12A78002A64
:100B400031D1019911B14A1E0A424ED100221846F4
:100B50003A70327022702A7003B0BDE8F08F61B332
:100B60004FF47A722E4C02FB01F82E4DDFF8A4B040
:100B700011E02A78BAB9002B49D1DBF82820A2EB82
:100B80000902904512D9052002F032F83B783278FC
:100B9000DBB2002ACDD12278002AEAD02A7843F0AD
:100BA0000403002ACDD043F00803CAE7BAF1000FCE
:100BB000CCD001228AF80020C8E7194C194D0BE06F
:100BC0002A78002AEFD113BB052002F011F83B78F8
:100BD0003278DBB2002AACD12278002AF0D02A7811
:100BE00043F00403002AACD0DDE73220019301F08A
:100BF000FFFF3A7831782078490041EA80010A43C2
:100C00002978019B42EAC1021343DBB29EE701232C
:100C100097E700BF00000B40900C0020920C0020D2
:100C2000910C0020930C002070B5052082B002F0DA
:100C300005FAB0F5162F45D3234BB3EE007AA3FB8C
:100C40000030000C07EE900AF8EEE77AFCEEE76A57
:100C5000CDED016A9DF8042006EE902AF8EEE66AD2
:100C600077EEE67A67EE877AFCEEE77ACDED017AE9
:100C70009DF8043043EA021340F6FF71134C144D03
:100C8000A3666167236F032683F400639BB22B671F
:100C9000636E4FF00102DB4303F001036B6642EC2D
:100CA00040604FF47A7001F0A3FF4FF0000343EC73
:100CB0004060236F9BB22B67636E03F001036B668A
:100CC00002B070BD1023D7E7B5814E1B00800A40EB
:100CD00000900A402DE9F04F102085B004F0B2FAE0
:100CE000944D954E954CDFF86082954F95F80090A5
:100CF000B9F1000F15D0B9F1010F5AD0B9F1020FB7
:100D000038D0B9F1030F00D0FEE7FFF78DFF1220B6
:100D100004F098FA00232B7095F80090B9F1000FB9
:100D2000E9D14FF050431B6DDB07DFD504F092FA99
:100D3000A028DBD104F08EFA824604F08BFA034639
:100D40005046336004F08CFBC4F8009004F090FB34
:100D50000121336800F0030201FA02FA022B8346F4
:100D60005FFA8AF900F084804FF0010388F8009060
:100D70002B70BBE7002233683968012B18F801900B
:100D80008DF80F2040D040F6C41141F28832022B7A
:100D900018BF114648460DF10F02FFF7B7FE9DF848
:100DA0000FA0BAF1000F01D1814530D003232B7081
:100DB0009CE74FF4FA7001F01BFF3368012B20D041
:100DC000022B0CBF4FF4FA7B4FF47A7B2368002B85
:100DD00010DB4FF00009DFF870A159461AF8010B3B
:100DE000FFF744FDC82001F003FF236809F1010962
:100DF0004B45F2DA002202233A602B70FFF770FEB7
:100E000074E74FF42F7BE1E740F6AC51C2E74FF4B3
:100E10009671FFF72BFD3B682268013393423B60DC
:100E20007FF764AF112004F00DFA2068013004F060
:100E300009FA236803F1010BBBF1630FC4F800B09A
:100E40004CDC04F015FB4FF00109316800F003029F
:100E500009FA02F9022982465FFA89F344D04FF475
:100E6000FA7008F80B3001F0C3FE01232B703DE748
:100E7000009204F0FDFA6421324B009A83FB003C9F
:100E8000C317C3EB6C1301FB13001D283FF76CAFB6
:100E9000DBF1000303F0030358BF5A42914604F00C
:100EA000E7FA424202F0030200F0030358BF534244
:100EB00099450AD104F0DCFA424202F0030200F044
:100EC000030358BF53429945F4D04FF0010909FA82
:100ED00003F949EA0A095FFA89F945E7132004F0A2
:100EE000B1F985F800A001E7CDE9003204F0C0FABD
:100EF000DDE90032642190FBF1FC0CFB11001D28A0
:100F0000ADDCDAF1000303F0030358BF5A42924606
:100F100004F0AEFA424202F0030200F0030358BFAD
:100F200053429A45F4D0012202FA03F343EA09033B
:100F3000DBB294E7960C0020C40B0020C00B00200D
:100F4000800C00201F85EB51180C002070B5234C3D
:100F50002349206804F0F2F92268224B02261888FF
:100F6000134653F8044F02F5805503F5405CCCF866
:100F7000006012683440D24303F5005302F0CF0200
:100F80002A6001211C6000F06DFF174B174D188877
:100F9000012100F067FF288800F0FAFF4FF00104FC
:100FA0002B8844EC443044EC4030114D288800F04C
:100FB000EFFF2B8844EC443044EC40300D4DB5F944
:100FC0000000431C00D170BD00F0E2FFB5F9003015
:100FD00044EC443044EC403070BD00BFD4060020E7
:100FE000005A6202CA060020C8060020D00600206F
:100FF000CE060020CC0600202DE9F04F85B0FFF78B
:10100000A5FF644A4FF00003128843EC4020624C75
:10101000B4F90020002AC0F2908043EC4020052063
:1010200001F0E6FD4FF00102B4F9003042EC40302F
:10103000962001F0DDFDDFF86C910DF10F03DFF874
:10104000688101931824EF220326DFF860A107E0EE
:10105000013C14F0FF0466D09AF8016015F80B20EB
:101060004C4B00211B880AF1020541EC4030B9F8D5
:1010700000308DF80F2041EC4030D8F800E0022716
:10108000734653F804CF0EF5805A03F5405BCBF856
:1010900000707046DEF800E00CF0020C8EF0C70E17
:1010A00003F500530EF0CF0ECAF800E00122C3F89A
:1010B00000C0019904F0B4FA06F07F0B0122B9F8E0
:1010C000003042EC4030D8F800E05A46734653F8FE
:1010D00004CF0EF5805A0CEA07070097022703F5A4
:1010E000405CCCF800707046DEF800E0009F8EF0A7
:1010F000C70E03F500530EF0CF0ECAF800E02946E4
:101100001F6004F08DFA234B01221B8842EC403013
:10111000330605EB0B0A9BD59620013C01F068FDD8
:1011200014F0FF0498D1F0204FF4A0721B491C4B1F
:1011300008801A8005B0BDE8F08F0122DFF86490C6
:101140008DF80F20B9F8001043EC4010DFF85880FC
:101150004FF0020ED8F800400DF10F01234653F86E
:10116000045F04F5805603F5405CCCF800E02046AF
:10117000246805EA0E0584F0C70403F5005304F063
:10118000CF0434601D60019104F04AFA962001F00A
:101190002FFD57E7D0060020CC0600208E0C002043
:1011A0008C0C0020CE060020D4060020255800100C
:1011B0002DE9F04300F00300022885B06CD003282D
:1011C00065D001286DD04821F0244FF4A072374B30
:1011D000374D18708DF80710364B37491A800C8040
:1011E0004FF000032A8843EC40203621DFF8CC90F2
:1011F0008DF80F10B9F8002043EC4020DFF8C080D4
:101200000227D8F800400122234653F8046F04F562
:10121000805C03F5405ECEF80070204624683E40B6
:1012200084F0C70403F5005304F0CF04CCF8004069
:101230000DF10F011E6004F0F3F94FF00106B9F84B
:10124000003046EC4030D8F800400122234653F8E5
:1012500004CF04F5805E03F54058C8F800702046BE
:1012600024680CEA070C84F0C70403F5005304F06B
:10127000CF04CEF800400DF10701C3F800C004F020
:10128000CFF92B8846EC403005B0BDE8F083E8216B
:101290004FF4A074F0229AE78821F0244FF4A07252
:1012A00095E728214FF4A074F02290E7950C0020D8
:1012B000D00600208C0C00208E0C0020CE060020D2
:1012C000D40600202DE9F04F794F87B04FF0000988
:1012D0003B88ADF8062049EC40302A2283B243EA2D
:1012E00000408BB2DFF8D08143EA014100BA09BA6D
:1012F000CDE90401B8F800308DF80F2049EC4030FA
:101300006C4D02242E680122334653F804CF06F5B3
:10131000805E03F5405ACAF80040304636680CEA51
:10132000040C86F0C70603F5005306F0CF06CEF88E
:1013300000600DF10F01C3F800C004F071F94FF027
:101340000106B8F8003046EC4030D5F800C0042261
:10135000634653F804EF0CF5805A03F5405BCBF875
:1013600000406046DCF800C00EEA040E8CF0C70CAA
:1013700003F500530CF0CF0CCAF800C004A9C3F861
:1013800000E004F04DF92B238DF80F30B8F8003051
:1013900049EC4030D5F800C00122634653F804EF11
:1013A0000CF5805A03F5405BCBF800406046DCF852
:1013B00000C00EEA040E8CF0C70C03F500530CF0CD
:1013C000CF0CCAF800C00DF10F01C3F800E004F023
:1013D00027F9B8F8003046EC4030D5F800C00422B8
:1013E000634653F804EF0CF5805A03F5405BCBF8E5
:1013F00000406046DCF800C00EEA040E8CF0C70C1A
:1014000003F500530CF0CF0CCAF800C005A9C3F8CF
:1014100000E004F005F92C238DF80F30B8F8003007
:1014200049EC4030D5F800C00122634653F804EF80
:101430000CF5805903F5405ACAF800406046DCF8C4
:1014400000C00EEA040E8CF0C70C03F500530CF03C
:10145000CF0CC9F800C00DF10F01C3F800E004F093
:10146000DFF8B8F8003046EC4030D5F800C0012273
:10147000634653F8045F0CF5805E03F54058C8F8E6
:1014800000402540DCF8004003F50053E44304F03D
:10149000CF04CEF8004060461D600DF1060104F057
:1014A000B7F83B8846EC403007B0BDE8F08F00BF8E
:1014B000D0060020D4060020CE060020704700BFD2
:1014C00010B40C4C0128B4F800C00AD00A48ACEBA8
:1014D000010119600188019B891A5DF8044B1960AC
:1014E0007047ACEB02021A60019B5DF8044B196077
:1014F000704700BF8E0C00208C0C00202DE9F04FAF
:10150000002A8DB0BDF858B0039007910993089256
:1015100040F3F380002B1C4640F3EF80179B00EB59
:10152000020E012BB8BF01230A93002370460093DB
:101530004B1E23440193734D4B1C734F0B93009C24
:10154000089B039A0799A3EB44036600002B2244EF
:101550002144029660DD0B9BB7F800C003EB040E3C
:10156000E645A8BFE6462B8821EAE17883421E467D
:10157000A8BF0646F045F14622EAE27A26DACDE92E
:1015800004211A46334656469A4606905645B8BF39
:1015900034460EDAA24209DDE04507DA5A464146F2
:1015A0002046FFF78FFE2A88B7F800C00134A24515
:1015B000F0D108F10108C145E8D113460698B246BA
:1015C0008342A8BF03461E460599049A019C631CEA
:1015D0006345A8BF634624EAE478984599461BDA38
:1015E000B24519DA4446CDE904210690D0462B884D
:1015F000434507DD3B88A34204DD5A462146404669
:10160000FFF760FE08F10108B045F0D10134A145B3
:10161000ECD1DDE904210698099B029C1B1B002BE1
:101620006EDD019B22EAE2793A885C1CA242944674
:10163000A8BFA44621EAE17603992B8801F10108AD
:10164000009988449845A8BF9846664558DAB2463E
:10165000029404964C460590E14646461846B4422C
:10166000B8BFA0460EDA404508DD924506DA5A4674
:1016700040465146FFF726FE28883A8808F10108BF
:101680004645F0D10AF1010AD145E8D10346029C52
:101690000598A242A8BF22468342A8BF0346049EE3
:1016A0001C46964200F1FF3323EAE37A1ADAA24598
:1016B00018DA91463246264614460293D0462B88C5
:1016C000434507DD3B88A34204DD5A462146404698
:1016D000FFF7F8FD08F101084645F0D10134A145B6
:1016E000ECD1029B1846019B009A013B01930A9B97
:1016F0000132934200927FF422AF0DB0BDE8F08F2B
:10170000431EEFE78E0C00208C0C00202DE9F843DF
:10171000114E3388F3B1DFF84480B8F80090B9F186
:10172000000F17D01F460025002400E033889C429C
:1017300008DAB8F800309D4204DA00222946204633
:10174000FFF7C0FD0134A742F0D10135A94501D012
:101750003388E9E7BDE8F8838E0C00208C0C00206C
:10176000012838BF0120014B18707047DA060020AD
:10177000014B1880704700BFD80600202DE9F04FBC
:101780001646127887B00291002A69D084463A4BF7
:10179000DFF8F4901B78203AD1B25F298CBFBA22CF
:1017A00002EB4202354898BF5200013A851805966F
:1017B00000212E46CDF80CC016F8015F00270496D4
:1017C0002E46009146FA07F2D10738D5002B36D0C5
:1017D000029AB9F8001013FB072202EB03088845B0
:1017E000A8BF884622EAE27444453CDA009A03998D
:1017F00012FB031B224A5B4412882BEAEB7B9342C9
:10180000A8BF13461F4A9B45158816DA0193DA468E
:101810001B4B1B88534508DDB9F80030A34204DD9B
:101820002A4621465046FFF74DFD019B0AF1010A69
:101830005345EDD10134A045E9D10F4B1B78013759
:10184000082FBFD10099049E01310629B4D1059E0D
:10185000DDF80CC016F8012F13FB01CC002A9AD139
:1018600007B0BDE8F08F0137082F46FA07F2E9D03C
:10187000D207ADD4E3E700BFDA0600209458001089
:101880008E0C0020D80600208C0C002038B503F008
:10189000CFFD1F211A2000F0E5FA00221A20114680
:1018A0000F4D00F0FDFA00211A2000F061FB2B68BB
:1018B0000C4C03F4704323601F211B2000F0D2FA6C
:1018C00000221B20114600F0EBFA00211B2000F043
:1018D0004FFB2B6883F4805303F47043236038BDBF
:1018E00000000A4000100A4070B51B2000F050FBB9
:1018F0001B244FF0000545EC4440142000F048FB49
:10190000142345EC44300E2000F042FB4FF001065A
:101910000E2346EC443046EC4030012001F068F9DB
:101920001A2000F035FB1A2346EC443045EC4030D9
:10193000012001F05DF903F07BFD204600F028FB5B
:1019400020461F2100F08EFA00222046114600F0AA
:10195000A7FA2046002100F00BFBBDE87040054BC4
:10196000054A1B68012083F4805303F4704313601D
:1019700001F03EB900000A4000100A4070B50E2088
:1019800000F006FB4FF000050E2345EC44301A2012
:1019900000F0FEFA1A2445EC44401B2000F0F8FA4F
:1019A0004FF001061B2346EC443046EC403001204A
:1019B00001F01EF9142000F0EBFA142346EC443039
:1019C00045EC4030012001F013F903F031FD2046D1
:1019D00000F0DEFA20461F2100F044FA00222046E3
:1019E000114600F05DFA2046002100F0C1FABDE882
:1019F0007040044B044A1B68012003F470431360D9
:101A000001F0F6B800000A4000100A4038B503465D
:101A10002DED028B0E2008EE103A4FF0010400F07D
:101A2000B7FA0E2344EC44304FF0000242EC403051
:101A3000142000F0ADFA142344EC443044EC403060
:101A40002F4C1A2000F0A4FA23682E4D03F47043A3
:101A50001B202B6000F09CFA2368012083F4805344
:101A600003F470432B6001F0C3F82368012003F4F2
:101A700070432B6001F0BCF80422234B1A602368EA
:101A8000DA05FCD5636822681E4982F4805202F4AC
:101A900070420A6001209CB201F0AAF804211A4B9E
:101AA000174A19601368DB05FCD507EE904A5368A6
:101AB000B8EEE77A9BB207EE903AF8EEE76AF7EEF7
:101AC000004A86EE876A76EE646AF8EEC87ABDEC64
:101AD000028B27EE267A9FED0D5A67EE877ADFEDAF
:101AE0000C5A67EE857AF4EEE57AF1EE10FA56BFFD
:101AF000FDEEE77A4FF4806017EE900A38BD00BF24
:101B000000000A4000100A4000200A400000803A0D
:101B10000000C8422DE9F04FC3B001AC82468946AF
:101B20000192A046FFF7E0FE2E4EDFF8BCB002ADFA
:101B300041AF012001F05CF804233360DBF8003092
:101B4000DA05FBD5DBF804309BB248F8043FB84512
:101B5000EFD12E4656F8040F334653F8042C19469D
:101B6000904204DA1A600B1FAB42F6D12946BE42FE
:101B70000860EFD1D5F880301A4ECAF80030FFF770
:101B8000FDFEDFF864A0012001F032F80423336089
:101B9000DAF80030DB05FBD5DAF804309BB244F804
:101BA000043FBC42EFD12C4654F8040F234653F8AF
:101BB000042C1946904204DA1A600B1FAB42F6D18E
:101BC0002946BC420860EFD1D5F880304FF49670BA
:101BD000C9F80030FFF71AFF019B186043B0BDE859
:101BE000F08F00BF00200A4000000A4070B584B0AA
:101BF00003AA05460C4601A802A9FFF78BFFDDE901
:101C000001231F4EA2F22622C2EB0212B6EB021FE4
:101C1000039805DB11011B4A91422ADA002200E0F9
:101C2000F0221949A3F5FF7303EB8303B1EB831F84
:101C30002A604FEA831205DB6FF441639A420BDAA4
:101C4000002301E04FF4A073B0F57A7FACBF002011
:101C50000120236004B070BD01F1294101F51D018F
:101C600001F2DE5181FB0251D3170A44C3EBE22398
:101C7000EAE7064E86FB0126CA17C2EBA622D0E78A
:101C800085420A001BF5FFFF91220F00355BF55DD1
:101C90004FF050422DE9F84F6D4BD2F800A053F8A9
:101CA0002A70BAF1000F2CD0DFF8B0816FB3002694
:101CB000DFF8A0B1DFF8A091F3080C3358F82350F7
:101CC00034460836CDB105F00F0120462D09013408
:101CD00089B15BF82A2000F00703C2404FEAD00C1C
:101CE0009B00D20701FA03F30CF18C0C02D449F8E3
:101CF0002C30B8470DB1B442E5D3202EDCD1BDE87D
:101D0000F88FDFF85C81002FD1D15248F90801F13A
:101D10000C0358F82330002B7BD013F00F054FEA4B
:101D200013120AD050F82A40FC40E60703D44A4C6C
:101D30008C3144F82150002A6BD012F00F024FEA88
:101D400013210DD050F82A407D1CEC40E40705D447
:101D5000EC08414D12018C3445F82420002958D05C
:101D600011F00F014FEA133207D050F82A40BD1C82
:101D7000EC40E60757D5002A4BD012F00F024FEA8D
:101D8000134107D050F82A40FD1CEC40E40751D520
:101D900000293ED011F00F014FEA135207D02D4C0D
:101DA00054F82A503C1DE540EE074AD58AB312F09C
:101DB0000F024FEA13610DD0264C54F82A507C1DB7
:101DC000E540ED0705D4244DE40812058C3445F8B0
:101DD0002420F1B111F00F014FEA13731FD01D4CF5
:101DE000BD1D54F82A20EA40D60705D4EA081A4D4A
:101DF00009068C3245F822105BB154F82A10FA1DFE
:101E0000D140C90705D41449D2081B078C3241F8C8
:101E100022300837202F7FF479AFBDE8F88F002BF0
:101E2000F7D00C4CE9E7EC080B4D09028C3445F86F
:101E30002410A0E7EC08084D12038C3445F8242048
:101E4000A6E7054DE40809048C3445F82410ADE7F5
:101E5000840B0020100C0020008002409082024081
:101E60004882024010B44FF480740C4B53F8202089
:101E700003EB8003C00082F0400200F1804003F5D4
:101E8000805C02F0C00200F5203003F54053CCF82E
:101E9000002041601C605DF8044B704704800340E3
:101EA00010B4084CC90041EA820154F8202004EB28
:101EB0008003514003F5805301F00C015DF8044BA1
:101EC00019607047048003402DE9F0434FF05049FA
:101ED0001F46DFF89880D9F80030164658F82320BE
:101EE00004460D4683B032B387B348F823704FF0F1
:101EF00050431B68BBB1194BE10804F00704184AB2
:101F0000A40005FA04F403EB81038C3142F821406C
:101F10005EB10121152003F500531C6003B0BDE83C
:101F2000F04300F0DDB80F4BE6E703F540531C60CB
:101F300003B0BDE8F083002FDCD015200A4948F833
:101F4000237000F023F9D9F80030D3E715200649B3
:101F5000019300F00FFA019BC7E700BF9082024097
:101F60000080024048820240911C0010840B002037
:101F7000064B402203EB800319B103F500531A60AE
:101F8000704703F540531A60704700BF0480034058
:101F900030B44FF0000343EC440043EC400005250F
:101FA0004FF480740B4BC20053F8201003EB8000F9
:101FB00081F0400102F1804303F5203301F0C002BB
:101FC00000F5805100F540500A605D60046030BC4F
:101FD000704700BF048003400FB400B583B0049C79
:101FE000074803F00DF83CB105A92046019102F025
:101FF000A9FE044803F004F8012002F0BBFE00BF74
:10200000405700105057001070B58646EFF310850A
:1020100072B6124CD4E8CF6F0120002EFAD1C4E87A
:10202000460F002EF6D1BFF35F8F4FF0010CC808AA
:1020300001F007030CFA03F31EF800C01CEA0306C4
:1020400008D14CEA030C0EF800C0C4E88F6F85F38A
:10205000108870BD1046FFF7BFFF00BF6B0B00205C
:10206000044A1078431CDBB2182B28BF10231370CE
:10207000704700BFDB0600204FF0E022936843F07A
:1020800000539360704700BF0021044B03F120020E
:10209000C3E88F1F01339342FAD17047600B0020D1
:1020A0004FF0E0234FF08032C3F80024C3F804243B
:1020B000C3F80824C3F80C24C3F81024C3F814246C
:1020C000C3F81824C3F81C24C3F82024C3F824241C
:1020D000C3F82824C3F82C24C3F8302462B6704710
:1020E000012300F01F029340400941B1800000F13C
:1020F000604000F56140C0F8803103607047024ADB
:10210000203042F82030704700E100E00123064A09
:10211000410952F8212000F01F0003FA00F010409E
:10212000003818BF0120704700E100E0F8B50D4607
:10213000EFF3108772B6124ED6E8CF2F0123002A94
:10214000FAD1C6E8423F002AF6D1BFF35F8F0D4BAC
:1021500000F110049B680C4A53F82430934203D0DA
:10216000994201D001F000F8064B9B6843F82450D7
:10217000BFF35F8F0023C6E88F3F87F31088F8BD59
:10218000690B002000ED00E0110100102DE9F04F77
:1021900081468B46164683B0EFF3108372B6DFF8A4
:1021A000D0A10093DAE8CF1F01230029FAD1CAE8B1
:1021B000413F0029F6D1BFF35F8F664B93F9004092
:1021C000002CC0F2A080644D04EB440705EB8708A7
:1021D00098F8061009F110091970604BBF009B6850
:1021E00053F829006300411B2F292FD95C498842ED
:1021F00040F0A4801C445B4B02372F44043BDB1BA4
:10220000C3F34A036FEAC3434FF421416FEAD34358
:1022100025F8241005EB840463804BF60153A3805A
:10222000FF2348F00100E671C4F808B0A3714B4BDE
:102230009B6843F82900BFF35F8F0023CAE88F3FF4
:10224000009B83F3108803B0BDE8F08F20F0010EEF
:102250009EF80710B1422ED84FF42143EB53414B67
:10226000B91C2944043B04375B1A2F44AEF1040126
:10227000C91BC1F34A043C49C3F34A030B4321433E
:10228000A8F804103949A8F802304AF6AA20734683
:102290005B1B5B415843000D88F8076088F8060017
:1022A000C8F808B048F00100CEF80010BFE7D179B7
:1022B000B1422ED996469EF906C00CEB4C02BCF1F9
:1022C000000F05EB8202F2DA4BF601510EF1040227
:1022D000A8F10407BF1AC7F34A076FEAC7476FEAB6
:1022E000D7478EF8064003EB0408204C05EB880323
:1022F000AEF8047045F82840998083F806C0DE7176
:10230000C3F808B093E700F02FFF124B93F9004099
:1023100059E7724632F8041F490514D449150231B1
:1023200002EB410101916FF00701C91B019F491B9D
:102330003944C1F34A0141F46041C9E7019300F017
:1023400013FF019B56E701F5FF1101F5FF511F3106
:10235000E4E700BF940C0020DC06002000ED00E064
:10236000110100100C07002000E0FFFF014880472A
:10237000690B00202DE9F04F83B0EFF3108A72B69D
:10238000714ED6E8CF2F0123002AFAD1C6E8423F8A
:10239000002AF6D1BFF35F8F6C4B00F110089B68E9
:1023A0006B4A53F82850954245D08D420C4650D088
:1023B000684FEB1B2F2B3ED801214FEA50194FEAF3
:1023C000890909F1604909F5614900F01F0301FA23
:1023D00003F0D9F80030C9F8800000EA030BBFF31E
:1023E0005F8FEFF30581C9B2002934D0884505D04D
:1023F000CDE9001000F0B8FEDDE9001025F0010E77
:10240000DEF808C0644505D189E0D3F808C064450A
:1024100031D09E469EF9062002EB4203002A07EBCC
:102420008303F2DA644561D0BBF1000F20D0C9F814
:102430008001C9F80000454B9B6843F82850BFF362
:102440005F8F0023C6E88F3F8AF3108803B0BDE892
:10245000F08F1546EFE725F0010EDEF808C0644561
:10246000D8D19EF906407346002C08DA154646E09E
:10247000C9F88000DFE793F90640002C37DB04EB56
:10248000440C07EB8C0C9CF80710DCF80820D97181
:102490009A609CF906206100002A9A713DDBBCF825
:1024A00004E05FEA4E5E05D50EF5FF1E0EF5FF5EF9
:1024B0000EF11F0E6FF0070C0A194FEA6E5E9200C4
:1024C00002EB4E0208323A44ACEB030C6244C2F316
:1024D0004A026FEAC2426FEAD2429A801E4B2144FE
:1024E0001A7807EB81011C708A719DE77346D9B990
:1024F000FF228EF806204BF60152AEF80420164C4F
:102500004AF6AA2294F800C01946C91B49414A4319
:10251000120D83F806C0227086E7104ADDE79EF9A7
:1025200006407346002CAADA0D4A0E4CD21A083A1D
:10253000C2F30A316FEA01516FEA115144EA5202C3
:10254000DA80998070E700BF690B002000ED00E0A1
:1025500011010010DC060020940C002001BDFFFFDB
:102560001607002000F8FFFFF0B5EFF30585EDB288
:10257000EFF3108C72B62649D1E8CF2F0123002A41
:10258000FAD1C1E8423F002AF6D1BFF35F8F214E56
:1025900040F0010EB4684AF6AA2354F825701E4A8A
:1025A0000446A41A644163431B0D77455BB21BD0FC
:1025B00092F906409C421CD092F912409C4223D0D2
:1025C00092F91E409C4221D092F92A409C4208BFB9
:1025D00003240FD0114A0024157813708571C1E8C7
:1025E0008F4F8CF31088F0BDB2680D4C42F8254037
:1025F000F0E7002404EB440402EB8402FF2494710E
:102600004BF601549480E5E70124F3E70224F1E757
:10261000690B002000ED00E0DC060020940C002097
:1026200011010010014B0B4403607047600B002048
:1026300070B5104C104DAC420ED2FF26236863B12A
:10264000FFF70EFD01462046FFF7ECFFA680BFF323
:102650005F8F0834AC42F1D370BDFFF701FD014636
:102660002046FFF7DFFF2671BFF35F8F0834AC42CF
:10267000E4D370BD98080020A80800200D4B1A680C
:10268000EFF3108172B6D2E8CFCF0120BCF1000F7A
:10269000F9D1C2E84C0FBCF1000FF4D1BFF35F8F4A
:1026A00000221B68C3E88F2F81F3108840BF0020F1
:1026B000002170477C0C00202DE9F04F2DED028B9E
:1026C00085B0EFF30583DBB2103B9A0818BF0122F7
:1026D0004FF0010103F0030B18BFAF4DAF4B08BF24
:1026E000AF4D0BEB820253F8226001FA0BF205F5B5
:1026F00041539FEDA78B01925A602FE0B3881C04D1
:1027000040F19380B379002B40F0DD80B6F90820CA
:10271000002AC0F21E81736902EB420203EBC2037E
:10272000D3E90247B7F1FF3F08BFB4F1FF3F0ED036
:1027300005EB8B01AB6A0A69D21AE31A934205D3FF
:1027400001232A6A03FA0BF3134200D10C612846D5
:1027500000F038FBA042B941C0F2FB80B6F9083066
:10276000019A002B0093EA63C8DBD6F8148003EBD0
:102770004309284608EBC907D7E9024A00F022FBC3
:10278000A04271EB0A01B9DBBAF1000FC0F2C380BD
:10279000D7E90431834A934200F0ED807A88B6F994
:1027A000080092B242EA0040984702460B4652EABD
:1027B000030100F0B080002B80F2D180B4EB020E58
:1027C0006AEB030A38F93930C7E902EA002B95DBD6
:1027D000716903EB430201EBC202D2E90270BE450C
:1027E0007AEB000C4FEA430288DBB4462CF8083F32
:1027F00006E003EB430001EBC0005A00D0E9027091
:10280000BE451A447AEB000001EBC20404DB31F947
:102810003230A446002BECDA28F83930009BACF8B3
:102820000030B3881C043FF56DAF3369EFF31082BD
:1028300072B6D3E8CF0F01210028FAD1C3E8401FB8
:102840000028F6D1BFF35F8F4FF6FF74B0880023E6
:10285000316900B2B480C1E88F3F82F3108898429A
:10286000FFF650AF0746A946746906F1080807EB62
:10287000470E04EBCE03D3E90250B6F90830C44644
:10288000002B13DBB246009704E034F9363094464F
:10289000002B09DB03EB430604EBC602D2E902710D
:1028A000BD4270EB0101F0DA5646009FACF80070B3
:1028B00034F93E7024F83E30002FD8DAB3794D4613
:1028C000002B3FF423AF0023B371B6F9083006F1B3
:1028D0000808581C3DD01A46776903E08046591C09
:1028E0003FF416AF03EB430107EBC100B0F802C0A1
:1028F0001C461CF4004F9E4637F93130EED094420E
:1029000080ED028B05D0A8F80030328927F83120FD
:1029100034817246E3E738F8393033813369EFF3B5
:10292000108272B6D3E8CF0F01210028FAD1C3E894
:10293000401F0028F6D1BFF35F8F7388316928F8F4
:102940003930009B73800023C1E88F3F82F31088E9
:10295000D4E640BF05B0BDEC028BBDE8F08F284641
:10296000CDE9022300F02EFA029A039B10EB020E2F
:1029700043EB010A26E708460B69029198470028B5
:10298000C9D00299D1E9002311E700BFAFF300805D
:10299000FFFFFFFFFFFFFFFF00800B40F00B002059
:1029A00000000B40B92600102DE9F84F364C256980
:1029B0002DB1BDE8F84F0A213448FFF733BEDFF8E8
:1029C000E4800321404600F0EBF90326C4F80C80B4
:1029D000FFF746FB4FF0504C2D4B2670034423610C
:1029E000DCF800300F216370636961801D834FF054
:1029F0000405A3F878504FF00505A3F890504FF068
:102A00000605A3F8A8504FF007050E214FF6FF72F8
:102A100008274FF00A0EA3F8C0504FF001094FF0FD
:102A20000C0C4FF0020B4FF0090A0D204FF00B0574
:102A3000A3F868111749A280A3F808E1A160A3F8E0
:102A400048B0A3F8F0A0A3F82051A3F838C1A3F828
:102A50005001A3F83090A3F86060A3F8D8701A80F2
:102A60000D4B3046C8F820700C49DC60FFF75EFB68
:102A700049463046FFF734FB094B0A211F640348DF
:102A8000BDE8F84FFFF7CEBD240700207C0C0020E6
:102A9000600B0020FFFF1000F00B0020B926001093
:102AA00000200B4000000B400146F0B50069EFF339
:102AB000108772B6D0E8CF5F0124002DFAD1C0E8AC
:102AC000454F002DF6D1BFF35F8FB1F902E04C699D
:102AD0000EEB4E0CBEF1000F4FEACC05086904EB7B
:102AE000CC0C3CDB665B4E800026C0E88F6F87F322
:102AF0001088BCF80200CCE902230130C0F30E00BC
:102B0000012838BF0120059BACF80200CCF810303A
:102B1000069B40EA0E40CCF814300B69EFF31082AC
:102B200072B6D3E8CFCF0127BCF1000FF9D1C3E8CB
:102B30004C7FBCF1000FF4D1BFF35F8F8B886353E0
:102B4000A1F804E00B69C3E88F6F82F310880122BB
:102B5000CB68097803F501538A405A60F0BD002321
:102B6000C0E88F3F87F310884FF0FF30F0BD00BF03
:102B700003464089B0EB214F37DD58690A1402EB58
:102B8000420210B500EBC2001C69EFF3108C72B664
:102B9000D4E8CFEF0122BEF1000FF9D1C4E84E2FE7
:102BA000BEF1000FF4D1BFF35F8F428889B292B2B9
:102BB0008A4207D000221B69C3E88F2F8CF310884C
:102BC000002010BD42F40042428001210022186919
:102BD0009971C0E88F2F8CF310881C78DA6808464A
:102BE00002F50153A140596010BD0020704700BF9D
:102BF0002DE9F04182B0064600F0ECF84FF47A730C
:102C000004464FF0FF306FF00042E6FB0341A04264
:102C100072EB01033ABF044615460D46A61F45F167
:102C2000FF37B44275EB07033CBF0026374600F080
:102C3000D1F8301A67EB0101012871F1000106DAC1
:102C40002046294602B0BDE8F04100F0FBB800F094
:102C5000C1F8864267EB010100290ADB0021174B0E
:102C60003246009316483B460191FFF71DFF0130A5
:102C7000E6D04FF0000C134A1349536A9F4204D820
:102C8000906AB042DCD29F42DAD10B68EFF3108039
:102C900072B6D3E8CF8F5FF0010EB8F1000FF8D114
:102CA000C3E848EFB8F1000FF3D1BFF35F8F0B68B3
:102CB000C3E88FCF80F3108820BFDEE77D260010A9
:102CC0002407002000000B407C0C00202DE9F0437D
:102CD00006460D4683B0EFF30584E4B23CB12D4BBC
:102CE0005A6AAA421CD2002003B0BDE8F0832A4FE2
:102CF000D7F80C9097F80080484600F063F808F188
:102D0000040859F828301B1A301A65EB0101984263
:102D100071F1000110DB20BF1E4B5A6AAA42E2D3B8
:102D200014BF012400249B6AB34234BF204644F000
:102D3000010003B0BDE8F08300F04CF8864265EB7B
:102D40000101002914DB154B3846CDE90034324629
:102D50002B46FFF7A9FE011E0ADD0E4B5A6AAA4256
:102D600016D39B6AB34211D30B48FFF701FFB6E7B6
:102D7000084B5C6AAC42B6D3641B18BF01249B6A43
:102D8000B34234BF204644F00100ADE7AA42EBD184
:102D900020BFE9E700000B40240700207D2600103B
:102DA00010B4054B054C064AA04214BF1846581CE7
:102DB0005DF8044BFFF728B9940B002000800B400E
:102DC000545700100346416A0A46986A596A8A4273
:102DD000FAD17047034B596A0A46986A596A914278
:102DE000FAD1704700000B4030B4154A536A9C4634
:102DF000946A536A6345FAD1021959414FF00005AC
:102E000028BF01250E4B5B6AB5B15A1C08BF1A4694
:102E100008D04FF0FF310A460948436A8B42FCD381
:102E20008B4207D1064902E0486A984202D1886A7B
:102E30009042F9D330BC70479942EDD8F0E700BF1B
:102E400000000B40074A536A9942FCD8994207D1C7
:102E5000044B02E05A6A914202D19A6A9042F9D830
:102E6000704700BF00000B40F8B5054606200E462F
:102E700000F0E4F8002842D0354A3648954214BFA5
:102E80004FF080624FF00062334B344902601A60A9
:102E90008C6832EA0404FBD12D4B4FF48071EB1A9D
:102EA000B3FA83F32E4A5B09062022F8131000F0D0
:102EB000C5F8C300B3FBF6F30133DA0920D140268D
:102EC00001216962AA622F6BFB0722D42B460022E4
:102ED00053F82C1F062003F5805422602F6300F066
:102EE000ADF840F2013103228000B0FBF6F0EB6A4E
:102EF00083F0700303F07E0323602963AA64F8BDA6
:102F00004FF6FE718A421BD922464FF6FF71154ECD
:102F1000D7E740F2013205F540531A636B6AAC6A99
:102F2000062004EB831400F089F80F4BA402A3FBE6
:102F30000023DB0A0021B4FBF3F0FFF755FFC5E7E0
:102F4000C3F34503114603EB82161A46B9E700BFE7
:102F50000080074000200240003002400000024094
:102F6000840C0020C0FF3F00757B2B8F00EB400CD2
:102F70004FEA8C0C0CF1804C0CF5803CF0B51646F9
:102F8000DCF80420051FB2F5803F38BF4FF48032D3
:102F9000EDB238BFCCF80420012D2AD94FF40067D8
:102FA000254C0CF54052176054F82020B2B9DCF8DB
:102FB0000020012D82EA461202F0E0020CF5805654
:102FC00032602AD94FF4006144F820304FF4803346
:102FD0000CF500521160CCF80430F0BD6769B7FB06
:102FE000F2FE0EF1010E0EEB4E0EBEF1030EFCD200
:102FF000DDE70129D2D103240CF540521460DCF83E
:103000000820D207FBD5DCF800200B4C82EA4612E0
:1030100002F0E0020CF5805632600122DCF800502C
:103020004D4005F00305356002FA01F1DCF8082097
:103030000A42FBD0C6E700BF980B0020014B53F8B3
:1030400020007047980B002070B4039D04682D0386
:1030500045EA03451B4B002CB3FBF1F3B2FBF3F63F
:103060001FDB194A194B904214BF4FF480424FF4B2
:103070000042174C1A6003F580531A60A36832EAC5
:103080000303FBD1212200F5405304330160866025
:103090001A600268002AFCDA0822C5601A6070BC57
:1030A0007047036803F03F038B42DAD18368C3F3B0
:1030B0000B03B342D5D1C36803F4EE23AB42D0D1A6
:1030C000EDE700BF001BB700008005400020024074
:1030D00000000240012300EB4000800000F180402E
:1030E00000F5841041600360704700BF0023DB8A55
:1030F000002242E800F2520201D4102118470421B4
:10310000184700BF034AD2F82838002BFBD0BFF382
:103110005F8F704700000E400021044B044ABFF34C
:103120005F8F43F8041B9342F9D170470C080E409F
:103130002C080E4010B44FF48D704FF42A64064AE8
:10314000064B07491460D06019605368002BFCDA05
:103150005DF8044B704700BF0080044000A00440AD
:1031600000B0FA00704700BF08B50148FEF734FF11
:103170007857001038B5054C054DAC4204D254F8D0
:10318000043B9847AC42FAD338BD00BF2856001024
:103190006856001038B5054C054DAC4204D254F8C1
:1031A000043B9847AC42FAD338BD00BF54560010D8
:1031B0006856001010B40748074C084B084A0949E4
:1031C00004601A608B6832EA0303FBD15DF8044B9C
:1031D000704700BF002002407F3BEFEF003002400D
:1031E000F6FFF30300000240044BDB6CB3F5004F25
:1031F00003D14FF48022024BDA6470470000115073
:10320000002011504FF0E022044BD2F8881D0B43F0
:10321000C2F8883D10EE3004704700BF0303300051
:103220006FF06041044B054A19609368DB4333F04B
:103230006043FAD1704700BF0030024000000240F6
:1032400010B545F25320FFF751FFBDE8104003468B
:103250000420184710B545F25320FFF747FFBDE89B
:103260001040034601201847FEF70EBF1449154BC6
:1032700070B55C1AA610442E324628BF4422124D67
:103280009200284602F014F9B4F5867F13D80F4A4D
:10329000C6F1440012D02B19410803EBC101C3E968
:1032A000002208338B42FAD1C30704D520F0010075
:1032B000304445F82020064B9D6070BD4320F8E760
:1032C000000000101001001000000020110100108B
:1032D00000ED00E0002370B52B4C82B0C4F88430C0
:1032E000FFF728FF0122294BDA63636C012BFCD125
:1032F0000321264A244B11639C6B012CFCD102262E
:10330000052521460523224A22480096FFF79CFE08
:1033100021462B46204A21480095FFF795FE0022C2
:10332000042031461E4BFFF721FE2146284600228D
:103330001C4BFFF71BFE0022082011461A4BFFF71B
:1033400015FE002209201146174BFFF70FFE002241
:1033500006201146134BFFF709FE0022114B0720F0
:103360001146FFF703FE0420FFF768FE00240F4B11
:10337000A3FB0035AD0CE0B229460134FFF7AAFEED
:10338000062CF8D102B070BD0000014000300140B1
:10339000002F685900000540008C864700800540DA
:1033A000001BB70080D1F008006CDC0283DE1B43F9
:1033B00086B003B451FC0804CDE9020151FC0904B4
:1033C000CDE9040151EC0A04CDE9060103BCF04744
:1033D000BDE800504EEC00C4BDE800504EEC01C406
:1033E000BDE800504EEC02C400BD000000B5FFF780
:1033F000DFFF02E010FE30F4F8D441EC100443EC9F
:10340000112400EE010410EE010480EE200451ECC2
:103410001004704700B5FFF7CBFF02E010FE30F458
:10342000F8D441EC100443EC112400EE010410EE3A
:10343000210480EE200451EC3004704700B5FFF702
:10344000B7FF02E010FE30F4F8D410B541EC1004E0
:1034500043EC112451EC040453EC0524A0FB024C72
:103460005FF0000EE0FB03CEE1FB02CE4CEC20440B
:103470000024E1FB03E444EC30E480EE200451EC52
:103480005004BDE81040704700B5FFF791FF02E01F
:1034900010FE30F4F8D441EC100443EC112451EC4C
:1034A0002104A0FB01126FEA820252FB100052FBC2
:1034B00012F252FB1000A0EBD07C53EC04245CFB16
:1034C00013F153EC1524A1FB022001FB030053EC84
:1034D0004424A2EB000050FB1CF24FEA111312EB44
:1034E000017043EBE27140EA515020EA915020F024
:1034F000070053EC7524A0FB023C53EC752400FB41
:1035000003CC01FB02CC53EC0424ACEB824C40EA2C
:103510005C70A0F1010041EC400480EE200451EC0D
:103520007004704700B5FFF743FF02E010FE30F46F
:10353000F8D440EC700400EE010410EE210480EE9B
:10354000200451EC3004704700B5FFF731FF02E072
:1035500010FE30F4F8D440EC600400EE010410EEEC
:10356000210480EE200451EC3004704700B5FFF7D1
:103570001FFF02E010FE30F4F8D441EC800400EEAE
:10358000010410EE010480EE400410EE13047047B5
:1035900000B5FFF70DFF02E010FE30F4F8D441EC67
:1035A000800400EE010410EE010480EE400410EEF1
:1035B0003304704700B5FFF7FBFE02E010FE30F465
:1035C000F8D441EC100443EC112400EE010410EE99
:1035D0003004C0F30070704700B5FFF7E9FE02E069
:1035E00010FE30F4F8D443EC102441EC110400EE4A
:1035F000010410EE30F48CBF01200020704700BFA2
:1036000000B5FFF7D5FE02E010FE30F4F8D443EC2D
:10361000102441EC110400EE010410EE30F42CBF34
:1036200001200020704700BF00B5FFF7C1FE02E097
:1036300010FE30F4F8D441EC100443EC112400EEF9
:10364000010410EE30F42CBF01200020704700BFB1
:1036500000B5FFF7ADFE02E010FE30F4F8D441EC07
:10366000100443EC112400EE010410EE30F48CBF82
:1036700001200020704700BF9A4238BF885470472D
:10368000704700BF2DE9F04F83B09946DDE90DABDF
:103690000F9B884611469A07074616D1DA453AD25B
:1036A0000C460D46ABEB0A060E4422464B464146FD
:1036B00020200134B847B442F7D12946BAF1000FAF
:1036C00008D1204603B0BDE8F08F0C46BAF1000FD8
:1036D00010D00E4655460C9B2E449A440191721B05
:1036E0004B46013D41461AF8010D3446B847002DBE
:1036F000F5D101990F9B9B07E3D5651AAB45E0D93E
:1037000022464B46414620200135B8475D4504F12D
:103710000104F5D3D5E70C46BAF1000FD9D1D0E7B3
:103720002DE9F04F0F9FDDF8248017F0020F0A9C5F
:103730009DF82CA00E9DDDE90C9644D1F5BBB4425A
:1037400041D207F0010B04F1FF3C4FF0300EC444AE
:1037500004E00134A6420CF801EF01D9202CF8D185
:10376000BBF1000F00F08880A5422CD904F1FF3C8A
:103770004FF0300EC44404E00134AC420CF801EFC9
:1037800021D0202CF8D117F0100F0ED017F4806F35
:1037900054D1A64263D0A54261D0B9F1100F50D0E8
:1037A000B9F1020F56D0202C29D12024CDE90B5796
:1037B000CDE90984BDE8F04FFFF764BF17F0010BB6
:1037C00034D1B442BFD317F0100F1ED017F4806F5E
:1037D000E3D1002CDDD1B9F1100F63D0B9F1020FA4
:1037E00077D0302488F800400124BAF1000F11D1BD
:1037F0007E0748D52B2608F804600134D6E7264614
:1038000001344FF0300C08F806C0202CCDD0BAF1AE
:10381000000FEDD02D2608F804600134CDE90B57D8
:10382000CDE90984BDE8F04FFFF72CBFBAF1000FD6
:1038300030D0B44205F1FF3585D395E7B9F1100FCB
:10384000B3D1BE063BD5202CAFD0582608F8046073
:103850000134A8E7202CA8D02646013407E0661ED4
:10386000B9D0B9F1100F36D0B9F1020FC9D14FF06C
:10387000620C08F806C096E717F0100FC5D017F4D1
:10388000806F86D089E73E0790D5202608F804602F
:1038900001348BE717F00C0F00D0013DB442FFF468
:1038A00052AF61E7BC0612D4782488F80040302477
:1038B00088F801400224BAF1000F99D0AAE7202C21
:1038C0003FF473AF782608F8046001346BE758249E
:1038D000EBE76224E9E717F0200FA4F1020C04D013
:1038E0004FF0580E08F80CE08BE74FF0780E08F810
:1038F0000CE086E700B9704701F040BB0000000013
:103900002DE9F04F97B09DED207BDDE9225B074666
:10391000884651EC170B249C99460C920B460246A4
:103920008DED047B0794FFF749FE002840F0F481F9
:10393000DDE904014FF0FF326FF48013FFF750FE12
:10394000002840F01B81DDE904014FF0FF32AC4B51
:10395000FFF782FE002840F0EE80DDE90401A4A319
:10396000D3E90023FFF778FE002840F0D380DDE99B
:103970000401A1A3D3E90023FFF732FE002840F0A1
:10398000C980DDE9040100220023FFF729FE002899
:1039900040F0E88023460D9013F4806F08BF0625A1
:1039A00030212B460EAAA5F1200605E0013BB342CB
:1039B00002F8011B00F09381092BF7D81E46ED1A7F
:1039C000DDE90401FFF7D6FD8E4B044603EBC60389
:1039D00093ED007B8DED087BFFF7A8FD02460B46BB
:1039E000DDE90401FFF71AFDDDE90823FFF72AFDF1
:1039F00002460B46CDE90A23FFF7CEFD8246FFF7CC
:103A0000A7FD02460B46DDE90A01FFF707FD024666
:103A10000B46CDE90A2300227B4BFFF71DFE002851
:103A200000F0FE800AF1010A5046FFF791FD0246C0
:103A30000B46DDE90801FFF7E7FD10B14FF0000A82
:103A40000134002E00F0FD80681E0EABDFF8CCC103
:103A500018440FE0ACFB0A21C90801EB8102AAEB74
:103A600042023032BAF1090F00F8012F40F21C81F6
:103A70008A461D46202D05F1010306F1FF36E9D1E6
:103A80002025691E0EAB6148194410E080FB0462DA
:103A9000C3EBA20303EB8302A4EB420404F1300264
:103AA00001351C4601F8012F002B00F0EB80202D82
:103AB0004FEAE473EAD1079B03F00303012B18D10B
:103AC000BBF1000F15D00D9B002B00F00A810BF10C
:103AD000FF3BBBF1200F0CD96B1E0EA930220B440B
:103AE00005E001355D4503F8012F80F0D180202DE0
:103AF000F7D1079B0EACCDE902B341464B463846A1
:103B00000C9A01950094FFF7BDFD8246504617B010
:103B1000BDE8F08F079B9DED047BCDE923B34146C3
:103B20004B4638460C9A8DED207B229517B0BDE8A8
:103B3000F04F00F045B9610723464CBF042303232F
:103B40004146219338464B46079A48BF304CCDE951
:103B500022B258BF2F4C0C9A209417B0BDE8F04FFA
:103B6000FFF790BDDDE9042300200021FFF756FC9C
:103B70000123CDE904010D9323460DE723469C075D
:103B800040F0AA80BBF1040F40F2A6800C9B1D46BA
:103B90001C1F04EB0B0A2A464B46414620200135E8
:103BA000B847AA45F7D155461B4C261F14F8010DFE
:103BB0002A464B464146B847B44205F10105F5D1C6
:103BC000079B0AF1040A9807A0D50C9CAAEB0403F2
:103BD0009B459BD952464B46414620200AF1010A9B
:103BE000B847AAEB04035B45F4D38FE7AFF300803B
:103BF0000000000065CDCD410000000065CDCDC1C5
:103C0000FFFFEF7F285B00100000E03F67666666FD
:103C1000C0570010C8570010D4570010CDCCCCCCE2
:103C20000022DDE90A01634BFFF7DAFC00287FF48C
:103C300008AFBAF1000F6AD10AF1010A002E7FF431
:103C400003AF2046FFF772FC02460B46DDE9040194
:103C5000FFF7E4FB02460B46CDE904230022554B57
:103C6000FFF7BEFC00287FF40CAFDDE90401002261
:103C7000504BFFF7F1FC00287FF403AF013424F030
:103C80000104FEE6079B03F00303012B00F0828092
:103C9000202D3FF42EAF0D9B7BB32D220DEB0503A2
:103CA00083F83820013524E7202B3FF4E9AE0EAA33
:103CB00015441E44302204E0202B05F8012F3FF468
:103CC000DFAE9E4203F10103F6D12E220DEB060377
:103CD00083F83820751CD4E6DDF830A063E7202592
:103CE0006EE6079B13F00C0F50D00BF1FF3BAB457A
:103CF0003FF6F2AE202D3FF4FCAE079B5A0701D5EC
:103D00002B22CBE71B077FF5F4AE2022C6E71AF083
:103D1000010F3FF496AE8FE7A60734D1BBF1030F36
:103D200031D90C9B1D46DC1E04EB0B0A2A464B4680
:103D3000414620200135B8475545F7D155461E4C20
:103D4000E61E14F8010D2A464B464146B847A642E6
:103D500005F10105F5D1079B0AF1030A9D077FF5DF
:103D6000D5AE0C9CAAEB04039B457FF6CFAE524622
:103D70004B46414620200AF1010AB847AAEB04034A
:103D80009B45F4D8C2E6DDF830A0D7E7AB453FF657
:103D9000A3AEAEE6BBF1000F3FF47AAF0D9B002B54
:103DA0009FD00BF1FF3B5D45FFF496AE202D7FF4D5
:103DB00074AF9EE60000E03FCF5700100000000007
:103DC0002DE9F04F9FB02A9EDDE92845074693462E
:103DD0000891099322462B46204629460E96DDE996
:103DE0002BA6FFF7EBFB002840F0BE8020462946BB
:103DF0004FF0FF32784BFFF72FFC002840F0B480E3
:103E0000204629464FF0FF326FF48013FFF7E8FB9E
:103E1000002840F0A9802046294600220023FFF711
:103E2000DFFB002840F0D581CDE90A45DDE90A2312
:103E30009046994606F4006216F480630F9213933D
:103E400040F0A18058EA090340F0CA80002A40F0FF
:103E5000E38106230E9316F00202109240F0D48103
:103E60005346042B38BF04230C920422043B1292C5
:103E70000F932046294600220023FFF7B1FB0028BC
:103E800040F0F3819DED0A7B0F9B5A4603930E9BF6
:103E90008DED007B029326F4006304933846099B62
:103EA0000899FFF72DFD024616F0200F099B08998F
:103EB0000CBF6520452002F10108B8470C9A129BFF
:103EC00016AC5D1E82EAE273A3EBE273D10F00260B
:103ED00022469946DFF804C101E0202E10D0CE46DC
:103EE000ACFB0930C00800EB8003A9EB430330337F
:103EF000BEF1090F814606F1010602F8013BECD83C
:103F00000523002006930A2305950094099D089C2B
:103F10004246CDE90330CDE901612B4621463846C2
:103F2000FFF7FEFB109A8046D2B1A0EB0B06B2451C
:103F300016D90BEB06022B46214620200136B84746
:103F4000B245F6D80BF1FF335344CBF10102A3EB9A
:103F500008034244924538BF002308F10108984401
:103F600040461FB0BDE8F08F5A463846CDE9284597
:103F7000CDE92BA60E9C099B08992A941FB0BDE899
:103F8000F04FFFF7BDBC58EA09032BD1002A3FF4DC
:103F900062AF00230C930E9B0C9A934200F3B981FD
:103FA0004FF000082046294600220023FFF718FBA7
:103FB000002840F013819DED0A7B26F4006646F44C
:103FC00080668DED287B5A463846CDE92A8A099BC2
:103FD00008992C96D2E700BFFFFFEF7FCDCCCCCC69
:103FE00006230E93C9F30A50A0F2FF30FFF79EFAA2
:103FF000C1A3D3E90023FFF725FAC1A3D3E9002326
:10400000FFF7F8F9C9F31309CDE90C0149F07F5125
:1040100040460022B24B41F44011FFF7FFF9A4A340
:10402000D3E90023FFF70EFA02460B46DDE90C0147
:10403000FFF7E0F9FFF79EFA0C90FFF777FA9EA3DF
:10404000D3E9002380468946FFF7FCF90022A54BFF
:10405000FFF7D0F9FFF78EFA034649464046129320
:1040600097A3D3E90023FFF7EDF98046129889461C
:10407000FFF75CFA94A3D3E90023FFF7E3F90246C4
:104080000B4640464946FFF7C9F902460B468046B3
:104090008946FFF7D7F942464B46CDE91001404625
:1040A0004946FFF7A7F90022CDE91401DDE9100127
:1040B0008D4BFFF7EDF900228C4BFFF79BF9024681
:1040C0000B46DDE91001FFF7E3F90022884BFFF70B
:1040D00091F902460B46DDE91001FFF7D9F9424696
:1040E0004B468046894600204FF08041FFF796F905
:1040F00002460B4640464946FFF77CF902460B460E
:10410000DDE91401FFF7C4F900227A4BFFF772F9D9
:10411000129B002203F2FF3C4FEA0C53FFF792F987
:1041200080468946DDE90A0142464B46FFF758FAC8
:1041300050B10C9B4046013B49460C9300226B4B0F
:10414000FFF7A6F9804689460C9A43466332C62A91
:1041500006F00202109249460F9A2CD8002A5ED02F
:10416000042212920B433FF416AFDDE90A0158A373
:10417000D3E90023FFF75CFA48B1DDE90A0156A351
:10418000D3E90023FFF72CFA00287FF404AF0E9B3D
:10419000002B50D0139A002A7DD0013B0E93129B26
:1041A0009A4505D9109B002B00F0AE800223109396
:1041B00000230F9344E022BBBAF1050F4FD906F05C
:1041C0000203002B49D105231293AAF105030F9393
:1041D0003AE005F100430A940B9327E626F40066C3
:1041E00046F4806638462C96DDE90A67344607F1C6
:1041F00000455A46CDE92A8ACDE92845099B089908
:10420000BCE605221292ADE700230222CDE90F326F
:1042100004220C9312922CE64FF00508C2E6BAF184
:10422000040F1FD9109B002B78D104231293AAF1FD
:1042300004030F9304E0129B9A4531D80E9B0F9311
:104240000C9B002B3FF415AEDDE90A0142464B46BC
:10425000FFF71EF9CDE90A010BE6022310930523AF
:104260001293F1E704231293EAE7DDE90A45A04639
:104270000F9B05F1004903930E9B5A46029326F4C7
:10428000006304933846CDE90089099B0899FFF73C
:1042900037FB024608E6129B9A4544D80F92CFE7B7
:1042A000109B8BB30E9B0F9302231093C8E700BFA4
:1042B00061436F63A787D23F71A379094F930A4087
:1042C0001655B5BBB16B0240EF39FAFE422EE63F00
:1042D0002D431CEBE2361A3F0000000080842E4183
:1042E0000000F83F0000E03F00002C4000002440A8
:1042F000000018400000F03FFB799F501344D33F6B
:10430000B3C8608B288AC63F129BAAEB03030F93A6
:1043100096E7A3EB020808F1FF3843E60423129363
:10432000022310938CE7109B002BEDD002230F92F9
:10433000109385E72DE9F04F9BB0249C954D0A948E
:10434000954CB1F1000A18BF834625601878934C4C
:10435000914608BFA3460993002800F093824FF0CE
:1043600000080AE042464B46514608F10108D8478A
:10437000099B1878002800F0CE80099B252803F1BE
:1043800001030993EED11C460023224612F8010BCB
:10439000A0F1200110290AD8DFE801F04009093C0A
:1043A0000909090909090938093409093000A0F186
:1043B00030010929099440F28A802A2800F0F0800F
:1043C00000252E2800F096800026A0F16801122911
:1043D0002DD8DFE811F049012C0043012C003801F1
:1043E0002C002C002C002C002C002C002C00270072
:1043F0002C002C002C002C002C002700144643F02D
:104400000103C2E7144643F00203BEE7144643F03B
:104410000403BAE7144643F01003B6E7144643F02A
:104420000803B2E70999487843F48073013267289A
:1044300009927ED8242840F2C180A0F12502422AA8
:1044400000F2BC80DFE812F05001BA00BA00BA00F6
:10445000BA00BA00BA00BA00BA00BA00BA00BA008C
:10446000BA00BA00BA00BA00BA00BA00BA00BA007C
:10447000BA00BA00BA00BA00BA00BA00BA00BA006C
:10448000BA00BA00BA00BA00190137011901BA001E
:10449000BA00BA00BA00BA00BA00BA00BA00BA004C
:1044A000BA00BA00BA00BA00BA00BA00BA00BC0139
:1044B000BA00BA00BA00BA00BA00BA00BA00BA002C
:1044C000BA00BC015801BC011901370119010025CE
:1044D00000E0013205EB850500EB45051078303D25
:1044E000A0F130010929F4D92E28099202F1010224
:1044F0007FF46AAF099943F4806348781146A0F1CC
:104500003006092E40F221812A2800F02F810992DD
:104510000026013259E74446C14501D809F1FF3868
:104520004B46424651460020D84720461BB0BDE8C6
:10453000F08FA0F16902D2B20F2A3FD8012149F2CF
:1045400041079140394040F0F3800A2A3DD0072AC4
:1045500034D10A9D55F8042B002A00F0138143F052
:10456000210012AB1F460B9303E0202900F01481B9
:104570001A4602F00F042346092C94BF3033373318
:104580000F2A07F8013B01F101014FEA1213ECD8A1
:1045900002E100BF35430010D40B0020813600102B
:1045A0000A99099851F8045B4078002DCDE909215A
:1045B000BCBF43F002036D42013202E742464B4664
:1045C000514608F10108D847D2E60A99002E51F861
:1045D000047B18BF3246387808BF4FF0FF320028FE
:1045E00000F07B83BC18A4463A4604E012F8014F61
:1045F000002C00F03F819445F8D16446E41B5A0535
:1046000040F12281B44228BF344613F0020300F087
:1046100088820223CDE90A5142461D46464408E0FD
:104620004B465146D84717F8010F08F1010810B161
:1046300042464645F4D12B460B990A9D002B40F08B
:1046400041810A9194E6099948786C287FF4ECAE90
:104650000A46887843F440730332E8E6099943F444
:10466000007348780132E2E609994878682800F03A
:10467000038143F080030132D9E6672800F0D98036
:10468000472800F0DC80452800F0DB80CDE90353AB
:104690000A9B0296073323F007031C464246F4E8C0
:1046A00002674B4651465846CDE900670A94FFF72A
:1046B00087FB80465CE6462808BF43F02003CDE92F
:1046C00003530A9B0296073323F007031C46424616
:1046D000F4E802674B4651465846CDE900670A9414
:1046E000FFF70EF9804643E642464B4651462520E9
:1046F00008F10108D8473BE60A9A990702F1040439
:1047000008F1010640F1C68010784B4642465146FA
:10471000D847012D88BFA84440F2BD8132464B46A0
:10472000514620200136D8474645F7D10A941FE666
:104730006F2800F0818040F24882782800F0908154
:104740000A2723F01003BC4641E0002606EB86064C
:1047500000EB4600A0F1300611F8010FA0F1300285
:10476000092AF3D90A46099101322EE6DDE9092129
:1047700051F8046B9078023209920A91013226EACC
:10478000E67622E623F0100013F4806240F0210068
:104790003FF4E7AE12AB0B930B9B069000930823FC
:1047A0001020059300234246CDE9023001914B468B
:1047B000514658460496FEF7B3FF0A958046D7E562
:1047C000582862D0622840F08F800227BC4613F43C
:1047D000806000F0DD8023F00D0313F4007240F0E0
:1047E00081810A990F1D13F4807140F037825C06B5
:1047F0000A9A40F13B811278002A40F04E8123F062
:104800001003002800F04981114612AA0B92CDE94D
:104810000553CDE903C601910B9B4246009300234B
:104820005146029358464B46FEF77AFF0A97804658
:104830009EE543F4006329E70827BC46C7E743F435
:10484000006343F0200321E713F0020300F08E81A0
:1048500002230A951E460D4642464B465146D8470E
:1048600017F8010F08F101080028F5D12946334651
:104870000A9DE3E6D41BC2E60A46887843F0C003EB
:104880000332D4E50446804646E6102743F0200371
:10489000BC469CE7012D40F2F880464608F1FF3700
:1048A0002F4432464B46514620200136D847BE425F
:1048B000F7D10A9B3246187851464B46D847A84450
:1048C0000A9455E54646A5427FF6BBAEA844A8EB40
:1048D00004080C4632464B46514620200136D84744
:1048E0004645F7D12146ACE613F4806200F0BB8068
:1048F0004FF4806223F0110C1CF400770A9B4AD11C
:104900001CF4807003F1040440F034811CF0400F6B
:1049100040F0A3801CF0800F00F0D381B3F90010A9
:1049200081EAE177A7EBE177BFB2CB0F002900F076
:1049300056813A4612A90F46DFF8D8E30B910A9345
:104940000C9501E020280FD01546AEFB0213DB08C2
:1049500003EB8301A2EB41013031092D1A4600F12E
:10496000010007F8011BEDD80A9B0C9DCDE9055C01
:10497000CDE9010304960B9B424600930A2351465E
:10498000039358464B46FEF7CBFE0A948046EFE46D
:1049900023F00C0321E7073323F0070319460846E9
:1049A0005B6850F8081BDF0F0A9051EA030062D1E0
:1049B000002A40F09F811346114612AACDE90C75DA
:1049C00000201546CDE90E68DFF848E30B9201E0C0
:1049D00020282DD05A1842F10002AEFB027828F0B0
:1049E000030707EB9807D21B1E469B1A61F10007CD
:1049F0000C464FF0CC3101FB03F10EFB0711A3FB7A
:104A00000E731944052307F00108A8FB03389B180F
:104A10000A2E03F130034FEA570774F1000405F83A
:104A2000013B00F1010047EAC1734FEA5101CFD2C7
:104A3000DDE90C75DDE90E680B9B424600930A2305
:104A4000CDE9055CCDE90107049603934B46514639
:104A50005846FEF765FE80468AE419780F4664E7FB
:104A60001027BC46B3E623F0100C45E71C064CBFEC
:104A700012881268C0E60A46191E01DB13469CE73D
:104A80005242134661EB410197E7134651461878AD
:104A900042464B46D847B04648E613F0200F14BFB5
:104AA0004120612012ACA6460B940A93A0F10A049F
:104AB0000C9502E0202912D02A46B2FBFCF50CFB33
:104AC0001520C3B2092803F130008ABF1B19C3B2F5
:104AD000DBB262450EF8013B01F10101EAD20A9B0B
:104AE0000C9D94E60A9A073222F00702516852F8A8
:104AF000084B8E460A9254EA010276D123F0100345
:104B0000002872D00022114612AA0B92CDE905535B
:104B10000B9B424600930023CDE903C6019102930B
:104B200094E7A54298BF01347FF674AD4FF48063DB
:104B3000CDE90A7505EB08021F460D46141B4246D7
:104B40004B465146202008F10108D847A045F6D130
:104B50003B460A9F294638780B9D6C1C00283FF481
:104B600070AD002B3FF475AE002353E5A542DFD8AE
:104B700001346EE61968CB0F002900F0A88081EAA5
:104B8000E172A2EBE17212A90846DFF888E10B910D
:104B90000A930C9501E0202F0FD01546AEFB0213AF
:104BA000DB0803EB8301A2EB41013031092D1A46EA
:104BB00007F1010700F8011BEDD80A9B0C9DCDE918
:104BC000055CCDE901730496D5E6692823F0100C45
:104BD00040F08C8013F480623FF48EAE88E6002AA9
:104BE0003FF4A8AE12AA0B92C0E613F0200F14BF38
:104BF00041226122002012A90A3ACDE90E68CDE9CE
:104C00000C35CDF844B006468846754693460B9160
:104C1000CDF840C003E0202E17D004460D462946AB
:104C20003A460023204600F0EBFCD2B2092A02F1FA
:104C3000300388BF02EB0B03BC42DBB275F1000509
:104C400008F8013B06F10106E5D23146DDE90C35F5
:104C5000DDE910CBDDF83C800E9E57E70A99096824
:104C600051B923F0100338B112A90B91CDE90553C6
:104C7000CDE903C60192CFE513F0200F14BF412008
:104C8000612012ACA6460B940A93A0F10A040C957D
:104C900002E0202A12D02946B1FBFCF50CFB1510CE
:104CA000C3B2092803F130008ABF1B19C3B2DBB2BB
:104CB00061450EF8013B02F10102EAD20A9B0C9D0C
:104CC000D4E7196881EAE177A7EBE1772DE6002ABE
:104CD0003FF459AF12AA0B9271E713F480640DD020
:104CE00013F0020412D004464646ECE50A27634658
:104CF000BC466CE512AB00200B939DE613F002035B
:104D00007FF4E0AD002D7FF413AF9AE4002D7FF423
:104D10000DAF96E4CDCCCCCC84460CB410B584B0A9
:104D200006AC54F8043B0A460094614604480394D8
:104D3000FFF700FB04B0BDE8104002B0704700BFB1
:104D40007936001010B5094B84B01C684CB103468D
:104D500000914FF0FF3203A90548A047012004B09D
:104D600010BD00F04DF9204604B010BDD40B00205A
:104D7000F538001000BEFDE708B5FFF7FBFF00BFE8
:104D800038B5064C064DFEF7F5F9AC4204D254F89E
:104D9000043B9847AC42FAD338BD00BF68560010B8
:104DA0006C56001003680846114618472DE9F0417B
:104DB0001546427D07468846002A46D0002D1DDD57
:104DC0000B780A2B23D0012D4FF0000C18D046464B
:104DD000012416F8012F21460A2A04F1010422D0E9
:104DE000A542F6D165450BDC08EB050313F8013C41
:104DF000A3F10D03B3FA83F35B093B75BDE8F081C2
:104E00003B68A5EB0C0108EB0C009847ECE7037D31
:104E1000002BD8D1036802210F489847012DE3D019
:104E20004FF0010CD3E716F8013C0D2BD8D08C4580
:104E300008EB0C00A1EB0C0101DA3B68984702215A
:104E400005483B689847A446CAE7294640463B6860
:104E5000BDE8F041184700BF785B00102DE9F0472E
:104E600082B00D4691461C460646FDF7B3FF4FF053
:104E7000FF3C6FF000472E4A821841F10003944531
:104E800077EB03013CBF62463B462A4800F0C4FB77
:104E90006B1C804640D00CB3274F284B1C68B4B124
:104EA000B9F1000F1CD1DFF89C9001E0246974B1C6
:104EB0002368002BFAD0D9F800300BB19C42F5D111
:104EC00020462A463146B8472469002CF0D1B8F173
:104ED000000F26D1284602B0BDE8F087184FDCE766
:104EE0004FF00A0ADFF85C9002E02469002CEED053
:104EF0002368002BF9D0D9F800300BB1A342F4D1CC
:104F00002A4631462046B847012220460DF10701C6
:104F10008DF807A0B847E8E7304600F03FFB0546AC
:104F2000B9E7044800F070FB284602B0BDE8F087FE
:104F300040420F00A0080020AD4D0010C80B00201B
:104F4000A54D0010D00B0020084A136823B90AE0D1
:104F500003F110021B6933B18342F9D129B91869F1
:104F600010601961704701B110607047C80B0020D4
:104F700008B500F033F9012008BD00BFF0B583B0DB
:104F800006468DF80700FDF725FF4FF0FF356FF05F
:104F90000044174A821841F10003954274EB030163
:104FA0003CBF23462A46134800F036FB124B074607
:104FB0001C689CB1114D01E024697CB12368002B71
:104FC000FAD02B680BB19C42F6D1204601220DF19C
:104FD0000701FFF7EBFE2469002CEFD117B930462B
:104FE00003B0F0BD034800F00FFB304603B0F0BD46
:104FF00040420F00A0080020C80B0020D00B00206A
:1050000038B5044600F0CAFA012305461A46204680
:105010002946FFF723FF084B1C682CB163682BB1AE
:1050200098472469002CF9D1284638BD2469002C02
:10503000F4D1284638BD00BFC80B0020B1F1000CE8
:105040001DDD0F4A0F4B126830B5D31AB3FA83F344
:105050000D240D4D5B09411E35F913E08C4411F808
:10506000010F864506D093699B06FCD4614510600C
:10507000F5D130BD93699D06FCD41460F3E7704709
:10508000880C002000800740840C0020224BB1F1E6
:10509000000C10B41C682EDD034600201F4A591E68
:1050A00012689369DB0617D401309369DB06FCD4E0
:1050B0001368844501F8013FF3D14CB150211346E8
:1050C000916353F8342F02F0380203F580531A60CD
:1050D00060465DF8044B70474CB150211346916314
:1050E00053F8342F02F0380203F580531A6078B178
:1050F0005DF8044B70475CB1084B50211A681346A9
:10510000916353F8342F02F0380203F580531A608C
:105110006FF00200DDE700BF8C0B0020880C002040
:10512000054B1B6833B10021044A0548126800682A
:1051300091631847704700BF8C0B0020880C00203B
:10514000900B0020024B1A6893691B07FCD4704730
:10515000880C0020F8B51C4F1C4D3A681C4EAA4222
:1051600014BF212522250446D6F800C018B1BCF191
:10517000000F10D0F8BDBCF1000FFBD001469063CA
:105180002846FCF7ADFF28461249FDF7F3F8124B0D
:1051900034601C60F8BD0B460F4A0E49306028464B
:1051A0001360FCF7C3FF01212846FCF799FF3A681A
:1051B00050211346916353F8342F02F0380203F55F
:1051C00080531A60F8BD00BF880C002000800740A3
:1051D0008C0B002021510010900B002010B50E49BF
:1051E0000E4C0F480F4A104B00782160002002211E
:1051F00012781B78FCF736FE02210120FCF732FE04
:105200004FF4E1312068FDF72FFEBDE81040012189
:105210000648FFF799BE00BF00000740880C002039
:10522000C45B0010C05B0010BC5B00103C0700209A
:1052300003BD00BF10B50446FDF7ACFF2346BDE833
:10524000104018474FF05042136D9B07FCD5506536
:1052500040BF70474FF05042136DD90703D420BFB1
:10526000136DDB07FBD54FF05043986D704700BFBF
:10527000F0B5054687B0192017460E46FCF746FFE5
:10528000002104461920FCF72BFF0021CDE904651D
:1052900003970026002701224FF050438C46CDE9AA
:1052A00000670292A9B11A6D9507FCD5596540BFF8
:1052B0001A6DD00703D420BF1A6DD207FBD59A6DA3
:1052C0008A420BD04FF0000C0DEB8C021168E9E71D
:1052D0009A6D1A6DD607FBD440BFE4E70CF1010CC0
:1052E000BCF1060FF0D12146192007B0BDE8F0400F
:1052F000FCF7F6BE0C4B0D4A93420ED39C4603F2CC
:10530000F4710B4A9268CCF8F4070A48CCF8F837E5
:10531000CCF8FC070848FFF7ABBF4FF0FF3340F273
:10532000F3719C46EDE700BF00080820000008204C
:1053300000ED00E03552001031520010384B2DE9DD
:10534000F047984214BF4FF400234FF480230746E0
:105350000E46344D344C354A2B602360956833EA51
:105360000505FBD10620FDF769FE39464FF0020A1C
:1053700051F804EF4FEAD6594FEA462C01F5405850
:1053800063464A4654460EEA0A0EC8F800A008E0F2
:1053900013EB0C0304F1020442EB0902B4F5807F25
:1053A00003D0984275EB020AF2D24FF48073C4EB3B
:1053B000042201E0012B30D0B0FBF2FC6645994697
:1053C000A2EB040203F1FF33F4D209FB04F91D023E
:1053D0003C6102243B4603263A6801F500516A40CD
:1053E00007F5805C02F47F42CCF80020C1F800E0B1
:1053F0007D68C8F8004053F8242B254082F007024E
:1054000002F0CF0203F50053CCF80020B0FBF9F016
:105410000D601E600C60BDE8F087A146D8E700BFB4
:10542000000008400020024000300240000002401E
:10543000012307480749084A03600B609368D907AE
:10544000FCD50123054A13601368DB05FCD57047C2
:1054500000200240003002400000024000000A40EC
:10546000024B00221B68C3E9260270475407002044
:105470000C4B0D4819680D4AD1F8983010B403FB55
:1054800000F0D1F89C4002FB04005DF8044BA3FB44
:105490000232013340EB0200C1E9263020F0004027
:1054A000704700BF540700202DF451582D7F954CB4
:1054B000844641EA000313F0030349D1403A23D361
:1054C0000B6803604B6843608B688360CB68C36084
:1054D0000B6903614B6943618B698361CB69C3616C
:1054E0000B6A03624B6A43628B6A8362CB6AC36254
:1054F0000B6B03634B6B43638B6B8363CB6BC3633C
:1055000040304031403ADBD230320BD30B6803607D
:105510004B6843608B688360CB68C3601030103188
:10552000103AF3D20C3205D351F8043B40F8043B57
:10553000043AF9D2043208D0D2071CBF11F8013B5B
:1055400000F8013B01D30B8803806046704700BF21
:10555000082A13D38B07B1D010F00303AED0C3F1E8
:105560000403D21ADB071CBF11F8013B00F8013B12
:10557000A4D331F8023B20F8023B9FE7043AD9D389
:10558000013A11F8013B00F8013BF9D20B780370A6
:105590004B7843708B7883706046704720F003012E
:1055A00010F00300C0F1000051F8043B00F1040CBE
:1055B0004FEACC0C6FF000021CBF22FA0CF213432E
:1055C0004FF0010C4CEA0C2C4CEA0C4CA3EB0C02F7
:1055D00022EA030212EACC1204BF51F8043B043061
:1055E000F4D0C2F1000102EA0102B2FA82F2C2F181
:1055F0001F0200EBD2007047F8B500BF00000000AA
:105600005FF800F0410300205FF800F0E5010020A2
:105610005FF800F0B10200205FF800F07D0100208B
:105620005FF800F02102002041320010B531001077
:10563000E9310010D532001021320010193100106C
:105640006932001005310010312600106D32001053
:10565000A9290010653100105532001005320010E4
:0C56600079200010A120001011020010A1
:10567000464143494C0000004449464943494C00D7
:105680004D4544494F0000004E4956454C3A2025AF
:105690007300000053434F52453A20256400000038
:1056A00052657069746120612073657175656E6300
:1056B0006961206E6F7320626F746F657320666915
:1056C0007369636F730000004553434F4C4841209A
:1056D0004449464943554C444144450047454E4999
:1056E00055530000546F71756520706172612069B7
:1056F0006E6963696172206F206A6F676F000000D6
:10570000535441525400000047414D45204F5645E7
:105710005200000053434F52452046494E414C3AF7
:10572000202564005245434F4D454341520000003F
:10573000564F43452056454E434555210000000035
:105740000A2A2A2A2050414E4943202A2A2A0A009E
:105750000A000000486172647761726520616C61C3
:10576000726D20256420616C726561647920636CC0
:1057700061696D6564000000486172642061737343
:105780006572740052656C6561736500626F6F7459
:10579000325F77323571303830000000322E322ED1
:1057A000300000007069636F32000000696C693975
:1057B00033343100417072202037203230323600CD
:1057C000666E692B00000000666E69006E616E00F7
:1057D000666E692D000000005541525420737464B8
:1057E000696E000055415254207374646F757400E3
:1057F0005541525420737464696E202F2073746471
:105800006F75740002000000030000000B00000030
:105810000400000008000000060000000C0000006A
:105820000500000018EF03038002CF0300C130ED34
:105830000464031281E803850078CB05392C003419
:1058400002F70120EA020000C00123C10110C502D5
:105850003E28C701863601483701003A0155B1029A
:105860000018B603088227F20100260101E00F0F9D
:10587000312B0C0E084EF1370710030E0900E10F13
:10588000000E1403110731C148080F0C31360F11F7
:105890008029800000000000000000005F00000080
:1058A000000700070000147F147F1400242A7F2AB9
:1058B0001200231308646200364955225000000587
:1058C00003000000001C224100000041221C0000D7
:1058D00014083E08140008083E0808000050300074
:1058E00000000808080808000060600000002010A0
:1058F000080402003E5149453E0000427F4000003E
:105900004261514946002141454B31001814127F34
:1059100010002745454539003C4A4949300001718E
:1059200009050300364949493600064949291E0040
:1059300000363600000000563600000008142241F0
:105940000000141414141400004122140800020171
:1059500051090600324979413E007E1111117E0045
:105960007F49494936003E41414122007F41412261
:105970001C007F49494941007F09090901003E4156
:1059800049497A007F0808087F0000417F410000F4
:105990002040413F01007F08142241007F404040E9
:1059A00040007F020C027F007F0408107F003E4110
:1059B00041413E007F09090906003E4151215E0038
:1059C0007F091929460046494949310001017F01F3
:1059D00001003F4040403F001F2040201F003F404B
:1059E00038403F006314081463000708700807007C
:1059F000615149454300007F414100000204081005
:105A000020000041417F00000402010204004040E8
:105A1000404040000001020400002054545478002B
:105A20007F444444380038444444200038444444CB
:105A30007F00385454541800087E090102000C52AB
:105A400052523E007F080404780000447D4000006C
:105A50002040443D00007F102844000000417F406A
:105A600000007C04180478007C08040478003844A2
:105A7000444438007C1414140800081414187C00E2
:105A80007C0804040800485454542000043F444057
:105A900020003C4040207C001C2040201C003C405A
:105AA00030403C004428102844000C5050503C002A
:105AB0004464544C440000083641000000007F005C
:105AC000000000413608000002010204020000004C
:105AD0000000000006005250D3F0754284570010B9
