:020000041000EA
:10000000002008205D0100101B0100101D010010E0
:100010001101001011010010110100101101001058
:100020001901001019010010190100101F01001022
:10003000110100101901001021010010230100100E
:100040001101001011010010110100101101001028
:100050001101001011010010110100101101001018
:100060001101001011010010110100101101001008
:1000700011010010110100101101001011010010F8
:1000800011010010110100101101001011010010E8
:1000900011010010110100101101001011010010D8
:1000A00011010010110100101101001011010010C8
:1000B00011010010110100101101001011010010B8
:1000C00011010010110100101101001011010010A8
:1000D0001101001011010010110100101101001098
:1000E0001101001011010010110100101101001088
:1000F0001101001011010010110100101101001078
:100100001101001011010010110100101101001067
:10011000EFF30580103800BE00BE00BE00BE00BE7A
:1001200000BE00BEF2EB8871B0380010D838001065
:10013000A001001090A31AE7D3DEFFFF42012110B7
:10014000FF0100006C3A0000793512AB4FF000005F
:100150001E49086006C881F3088810474FF05040D8
:10016000006810B14FF00000F2E70DA40ECC00299A
:1001700002D000F012F8F9E71549164A002000E015
:1001800001C19142FCD11449884714498847144958
:10019000884700BEFDE701C901C29A42FBD3704700
:1001A000D838001010010020DC030020A43B001010
:1001B0000000082000000820A43B001000100820C8
:1001C00000100820000000007047000008ED00E06B
:1001D000DC0300200C060020E5230010350200108F
:1001E000DD230010F8B500BF064B0749C91A891076
:1001F00048BF0131491003D0044B0BB101481847E7
:10020000704700BFDC030020DC030020000000007A
:1002100008B5054B1BB105490548AFF30080BDE8A3
:100220000840FFF7E1BF00BF00000000C00500204C
:100230006C2B00102DE9F04F89B002F0CBF90320B0
:1002400000F0B2FF4FF00104032344EC44300720D8
:1002500000F0AAFF072344EC4430082000F0A4FF7C
:10026000082344EC4430092000F09EFF092344ECAD
:10027000443000F069F9012000F042FA00F050FD2E
:1002800000F0C4FB00F01AFC022000F041FC4FF427
:10029000FC6000F045FC0A213520784A00F046FC5D
:1002A0004FF6FF744D215A254FF0000B35231A20CD
:1002B000CDE90014724A00F0C1FCCDE900543D23A1
:1002C0004621F7206F4A00F0B9FC5F46D9465D46EB
:1002D0005E46DFF8C481CDF80CB00DF11C0A4FE08A
:1002E000012E7ED002260BF1030BDBF1000303F09D
:1002F00003030BF0030B58BFC3F1000B4FEA0B13C2
:1003000058F803200321003A18BF012208EB0B1311
:1003100042EC40105A680721003A18BF012242EC13
:1003200040109A680821003A18BF012242EC4010A0
:10033000DB680922003B18BF012343EC4020013554
:10034000042D1AD1012E4FF000046ED15523462200
:1003500043217A20009400F079FB4FF6FF7301935C
:10036000B9F1000F4DD01A23009343237E20194684
:10037000454A00F063FCA1462546322001F040FCCE
:10038000002305A904A8079300F07AFE0446A0B94B
:10039000271E18BF0127002EA2D1032246EC4020C1
:1003A000072246EC4020082246EC4020092246EC79
:1003B0004020032D23D00135DFE70120DDE90412C1
:1003C000CDF800A006AB00F023FB002FE0D1069B88
:1003D000A3F11A02352A1FD8079B4D3B4D2BD7D8C6
:1003E00001270BF1010BDBF1000303F003030BF01A
:1003F000030B4FF0010658BFC3F1000B7EE73546F3
:10040000BBE71B23792100937A2044231F4A4D46E2
:1004100000F014FCB146B0E7F73B3D2BB8D8079B82
:10042000463B5A2BB4D801275CE750234622432190
:100430008120009400F00AFB039B73B122234FF646
:10044000FF71CDE90031432381201946104A00F0A5
:10045000F5FB0226254603948FE720234FF6FF7213
:100460007221CDE90032822043230A4A00F0E6FBE4
:100470000123039D022603937FE700BF6C2B00102E
:1004800068330010B82E00107C3200108831001044
:10049000842D0010642C0010242C001070B5234C07
:1004A0002349206802F0F6F92268224B02261888B8
:1004B000134653F8044F02F5805503F5405CCCF821
:1004C000006012683440D24303F5005302F0CF02BB
:1004D0002A6001211C6000F025FE174B174D18887B
:1004E000012100F01FFE288800F05EFE4FF001049D
:1004F0002B8844EC443044EC4030114D288800F007
:1005000053FE2B8844EC443044EC40300D4DB5F99B
:100510000000431C00D170BD00F046FEB5F900306C
:1005200044EC443044EC403070BD00BF5403002024
:10053000005A62024A0300204803002050030020B2
:100540004E0300204C0300202DE9F04F85B0FFF74B
:10055000A5FF644A4FF00003128843EC4020624C30
:10056000B4F90020002AC0F2908043EC402005201E
:1005700001F046FB4FF00102B4F9003042EC40308C
:10058000962001F03DFBDFF86C910DF10F03DFF8D1
:10059000688101931824EF220326DFF860A107E0A9
:1005A000013C14F0FF0466D09AF8016015F80B20A6
:1005B0004C4B00211B880AF1020541EC4030B9F890
:1005C00000308DF80F2041EC4030D8F800E00227D1
:1005D000734653F804CF0EF5805A03F5405BCBF811
:1005E00000707046DEF800E00CF0020C8EF0C70ED2
:1005F00003F500530EF0CF0ECAF800E00122C3F855
:1006000000C0019902F08CFA06F07F0B0122B9F8C4
:10061000003042EC4030D8F800E05A46734653F8B8
:1006200004CF0EF5805A0CEA07070097022703F55E
:10063000405CCCF800707046DEF800E0009F8EF061
:10064000C70E03F500530EF0CF0ECAF800E029469E
:100650001F6002F065FA234B01221B8842EC4030F8
:10066000330605EB0B0A9BD59620013C01F0C8FA36
:1006700014F0FF0498D1F0204FF4A0721B491C4BDA
:1006800008801A8005B0BDE8F08F0122DFF8649081
:100690008DF80F20B9F8001043EC4010DFF85880B7
:1006A0004FF0020ED8F800400DF10F01234653F829
:1006B000045F04F5805603F5405CCCF800E020466A
:1006C000246805EA0E0584F0C70403F5005304F01E
:1006D000CF0434601D60019102F022FA962001F0EF
:1006E0008FFA57E7500300204C0300200606002035
:1006F000040600204E03002054030020853500101E
:100700002DE9F04300F00300022885B06CD00328E7
:1007100065D001286DD04821F0244FF4A072374BEA
:10072000374D18708DF80710364B37491A800C80FA
:100730004FF000032A8843EC40203621DFF8CC90AC
:100740008DF80F10B9F8002043EC4020DFF8C0808E
:100750000227D8F800400122234653F8046F04F51D
:10076000805C03F5405ECEF80070204624683E4071
:1007700084F0C70403F5005304F0CF04CCF8004024
:100780000DF10F011E6002F0CBF94FF00106B9F830
:10079000003046EC4030D8F800400122234653F8A0
:1007A00004CF04F5805E03F54058C8F80070204679
:1007B00024680CEA070C84F0C70403F5005304F026
:1007C000CF04CEF800400DF10701C3F800C002F0DD
:1007D000A7F92B8846EC403005B0BDE8F083E8214E
:1007E0004FF4A074F0229AE78821F0244FF4A0720D
:1007F00095E728214FF4A074F02290E70906002025
:100800005003002004060020060600204E030020AE
:10081000540300202DE9F04F794F87B04FF00009C5
:100820003B88ADF8062049EC40302A2283B243EAE7
:1008300000408BB2DFF8D08143EA014100BA09BA27
:10084000CDE90401B8F800308DF80F2049EC4030B4
:100850006C4D02242E680122334653F804CF06F56E
:10086000805E03F5405ACAF80040304636680CEA0C
:10087000040C86F0C70603F5005306F0CF06CEF849
:1008800000600DF10F01C3F800C002F049F94FF00C
:100890000106B8F8003046EC4030D5F800C004221C
:1008A000634653F804EF0CF5805A03F5405BCBF830
:1008B00000406046DCF800C00EEA040E8CF0C70C65
:1008C00003F500530CF0CF0CCAF800C004A9C3F81C
:1008D00000E002F025F92B238DF80F30B8F8003036
:1008E00049EC4030D5F800C00122634653F804EFCC
:1008F0000CF5805A03F5405BCBF800406046DCF80D
:1009000000C00EEA040E8CF0C70C03F500530CF087
:10091000CF0CCAF800C00DF10F01C3F800E002F0DF
:10092000FFF8B8F8003046EC4030D5F800C004229B
:10093000634653F804EF0CF5805A03F5405BCBF89F
:1009400000406046DCF800C00EEA040E8CF0C70CD4
:1009500003F500530CF0CF0CCAF800C005A9C3F88A
:1009600000E002F0DDF82C238DF80F30B8F80030ED
:1009700049EC4030D5F800C00122634653F804EF3B
:100980000CF5805903F5405ACAF800406046DCF87F
:1009900000C00EEA040E8CF0C70C03F500530CF0F7
:1009A000CF0CC9F800C00DF10F01C3F800E002F050
:1009B000B7F8B8F8003046EC4030D5F800C0012256
:1009C000634653F8045F0CF5805E03F54058C8F8A1
:1009D00000402540DCF8004003F50053E44304F0F8
:1009E000CF04CEF8004060461D600DF1060102F014
:1009F0008FF83B8846EC403007B0BDE8F08F00BF71
:100A000050030020540300204E030020704700BF15
:100A100010B40C4C0128B4F800C00AD00A48ACEB62
:100A2000010119600188019B891A5DF8044B196066
:100A30007047ACEB02021A60019B5DF8044B196031
:100A4000704700BF06060020040600202DE9F84F7D
:100A5000002ABDF828802BDD002B29DDDFF858B0F7
:100A600003EB0109BBF80030124F9945A8BF994626
:100A70003B8816189E4221EAE175A8BF1E464D45E7
:100A800020EAE07A14DAB24512DA54463B88A342EF
:100A900008DDBBF80030AB4204DD42462946204663
:100AA000FFF7B8FE0134A642F0D10135A945ECD1DB
:100AB000BDE8F88F06060020040600202DE9F84363
:100AC000114E3388F3B1DFF84480B8F80090B9F1E3
:100AD000000F17D01F460025002400E033889C42F9
:100AE00008DAB8F800309D4204DA00222946204690
:100AF000FFF790FE0134A742F0D10135A94501D09E
:100B00003388E9E7BDE8F8830606002004060020E4
:100B1000012838BF0120014B187070475A0300208C
:100B2000014B1880704700BF580300202DE9F04F9B
:100B30001646127887B00291002A69D084463A4B53
:100B4000DFF8F4901B78203AD1B25F298CBFBA222B
:100B500002EB4202354898BF5200013A85180596CB
:100B600000212E46CDF80CC016F8015F0027049630
:100B70002E46009146FA07F2D10738D5002B36D021
:100B8000029AB9F8001013FB072202EB030888450C
:100B9000A8BF884622EAE27444453CDA009A0399E9
:100BA00012FB031B224A5B4412882BEAEB7B934225
:100BB000A8BF13461F4A9B45158816DA0193DA46EB
:100BC0001B4B1B88534508DDB9F80030A34204DDF8
:100BD0002A4621465046FFF71DFE019B0AF1010AF5
:100BE0005345EDD10134A045E9D10F4B1B780137B6
:100BF000082FBFD10099049E01310629B4D1059E6A
:100C0000DDF80CC016F8012F13FB01CC002A9AD195
:100C100007B0BDE8F08F0137082F46FA07F2E9D098
:100C2000D207ADD4E3E700BF5A030020F43500102B
:100C30000606002058030020040600202DE9F04F8E
:100C400087B09B46BDF94040BDF844E0009001925A
:100C5000002A5DD0002B5BDD002C59DD8EB23019EF
:100C60000BF1070C0023DFF8B0A0DFF8B08080B2F2
:100C70004FEAEC0CCDF814E004E00136B6B286423F
:100C8000634445D03204F8D4BAF800209642F4DA2E
:100C9000019ABDF8004002EB0309024631462046A6
:100CA00000251C4680276646134604E001350130C6
:100CB0005D4580B223D005F0070210F4004F45F3E4
:100CC000CC0C47FA02F2F1D1B8F800E07045EDDA49
:100CD00019F80CC01CEA020FE8D0BAF800209142C3
:100CE000E4DA059ACDE902010493FFF793FDDDE90B
:100CF00003130298013501305D4580B2DBD1B44663
:100D00000E46184623460136B6B286426344B9D130
:100D100007B0BDE8F08F00BF0406002006060020E3
:100D200038B501F031FE1F211A2000F0FBF9002236
:100D30001A2011460F4D00F013FA00211A2000F07E
:100D400023FA2B680C4C03F4704323601F211B20F3
:100D500000F0E8F900221B20114600F001FA002102
:100D60001B2000F011FA2B6883F4805303F47043C6
:100D7000236038BD00000A4000100A4070B51B20F7
:100D800000F012FA1B244FF0000545EC44401420FB
:100D900000F00AFA142345EC44300E2000F004FA67
:100DA0004FF001060E2346EC443046EC4030012063
:100DB00000F026FF1A2000F0F7F91A2346EC443021
:100DC00045EC4030012000F01BFF01F0DDFD204626
:100DD00000F0EAF920461F2100F0A4F90022204685
:100DE000114600F0BDF92046002100F0CDF9BDE824
:100DF0007040054B054A1B68012083F4805303F4BF
:100E00007043136000F0FCBE00000A4000100A406E
:100E100070B50E2000F0C8F94FF000050E2345EC28
:100E200044301A2000F0C0F91A2445EC44401B203D
:100E300000F0BAF94FF001061B2346EC443046ECB3
:100E40004030012000F0DCFE142000F0ADF9142346
:100E500046EC443045EC4030012000F0D1FE01F07A
:100E600093FD204600F0A0F920461F2100F05AF91A
:100E700000222046114600F073F92046002100F0C0
:100E800083F9BDE87040044B044A1B68012003F459
:100E90007043136000F0B4BE00000A4000100A4026
:100EA00038B503462DED028B0E2008EE103A4FF0B8
:100EB000010400F079F90E2344EC44304FF00002B5
:100EC00042EC4030142000F06FF9142344EC44301D
:100ED00044EC40302F4C1A2000F066F923682E4D68
:100EE00003F470431B202B6000F05EF9236801209F
:100EF00083F4805303F470432B6000F081FE236879
:100F0000012003F470432B6000F07AFE0422234B8F
:100F10001A602368DA05FCD5636822681E4982F4EA
:100F2000805202F470420A6001209CB200F068FE18
:100F300004211A4B174A19601368DB05FCD507EE2C
:100F4000904A5368B8EEE77A9BB207EE903AF8EE13
:100F5000E76AF7EE004A86EE876A76EE646AF8EE94
:100F6000C87ABDEC028B27EE267A9FED0D5A67EE0C
:100F7000877ADFED0C5A67EE857AF4EEE57AF1EECA
:100F800010FA56BFFDEEE77A4FF4806017EE900A34
:100F900038BD00BF00000A4000100A4000200A408F
:100FA0000000803A0000C8422DE9F04FC3B001AC08
:100FB000824689460192A046FFF7E0FE2E4EDFF8FA
:100FC000BCB002AD41AF012000F01AFE0423336033
:100FD000DBF80030DA05FBD5DBF804309BB248F8CB
:100FE000043FB845EFD12E4656F8040F334653F868
:100FF000042C1946904204DA1A600B1FAB42F6D15A
:101000002946BE420860EFD1D5F880301A4ECAF8A2
:101010000030FFF7FDFEDFF864A0012000F0F0FDD6
:1010200004233360DAF80030DB05FBD5DAF804304E
:101030009BB244F8043FBC42EFD12C4654F8040F55
:10104000234653F8042C1946904204DA1A600B1F09
:10105000AB42F6D12946BC420860EFD1D5F88030CA
:101060004FF49670C9F80030FFF71AFF019B186023
:1010700043B0BDE8F08F00BF00200A4000000A40E6
:1010800070B584B003AA05460C4601A802A9FFF773
:101090008BFFDDE901231F4EA2F22622C2EB0212D2
:1010A000B6EB021F039805DB11011B4A91422ADAB5
:1010B000002200E0F0221949A3F5FF7303EB83033C
:1010C000B1EB831F2A604FEA831205DB6FF44163A3
:1010D0009A420BDA002301E04FF4A073B0F57A7F57
:1010E000ACBF00200120236004B070BD01F1294194
:1010F00001F51D0101F2DE5181FB0251D3170A44B3
:10110000C3EBE223EAE7064E86FB0126CA17C2EBD1
:10111000A622D0E785420A001BF5FFFF91220F00AF
:10112000355BF55D10B44FF480740C4B53F8202000
:1011300003EB8003C00082F0400200F1804003F521
:10114000805C02F0C00200F5203003F54053CCF87B
:10115000002041601C605DF8044B70470480034030
:1011600010B4084CC90041EA820154F8202004EB75
:101170008003514003F5805301F00C015DF8044BEE
:101180001960704704800340064B402203EB800344
:1011900019B103F500531A60704703F540531A6004
:1011A000704700BF0480034030B44FF0000343ECAD
:1011B000440043EC400005254FF480740B4BC20003
:1011C00053F8201003EB800081F0400102F18043CE
:1011D00003F5203301F0C00200F5805100F54050C6
:1011E0000A605D60046030BC704700BF048003404B
:1011F0000FB400B583B0049C074801F033FA3CB14A
:1012000005A92046019101F0CFF8044801F02AFA1F
:10121000012001F0E1F800BF782B0010882B0010AE
:1012200070B58646EFF3108572B6124CD4E8CF6FD6
:101230000120002EFAD1C4E8460F002EF6D1BFF3EC
:101240005F8F4FF0010CC80801F007030CFA03F39D
:101250001EF800C01CEA030608D14CEA030C0EF885
:1012600000C0C4E88F6F85F3108870BD1046FFF78B
:10127000BFFF00BF6B050020044A1078431CDBB29F
:10128000182B28BF10231370704700BF5B0300208A
:101290004FF0E022936843F000539360704700BF23
:1012A0000021044B03F12002C3E88F1F0133934256
:1012B000FAD17047600500204FF0E0234FF08032F4
:1012C000C3F80024C3F80424C3F80824C3F80C248A
:1012D000C3F81024C3F81424C3F81824C3F81C243A
:1012E000C3F82024C3F82424C3F82824C3F82C24EA
:1012F000C3F8302462B67047012300F01F02934008
:10130000400941B1800000F1604000F56140C0F843
:10131000803103607047024A203042F82030704725
:1013200000E100E0F8B50D46EFF3108772B6124EFB
:10133000D6E8CF2F0123002AFAD1C6E8423F002A7F
:10134000F6D1BFF35F8F0D4B00F110049B680C4A80
:1013500053F82430934203D0994201D000F00CFF9F
:10136000064B9B6843F82450BFF35F8F0023C6E809
:101370008F3F87F31088F8BD6905002000ED00E07D
:10138000110100102DE9F04F83B0EFF3108A72B60F
:10139000714ED6E8CF2F0123002AFAD1C6E8423F8A
:1013A000002AF6D1BFF35F8F6C4B00F110089B68E9
:1013B0006B4A53F82850954245D08D420C4650D088
:1013C000684FEB1B2F2B3ED801214FEA50194FEAF3
:1013D000890909F1604909F5614900F01F0301FA23
:1013E00003F0D9F80030C9F8800000EA030BBFF31E
:1013F0005F8FEFF30581C9B2002934D0884505D04D
:10140000CDE9001000F0B8FEDDE9001025F0010E76
:10141000DEF808C0644505D189E0D3F808C064450A
:1014200031D09E469EF9062002EB4203002A07EBCC
:101430008303F2DA644561D0BBF1000F20D0C9F814
:101440008001C9F80000454B9B6843F82850BFF362
:101450005F8F0023C6E88F3F8AF3108803B0BDE892
:10146000F08F1546EFE725F0010EDEF808C0644561
:10147000D8D19EF906407346002C08DA154646E09E
:10148000C9F88000DFE793F90640002C37DB04EB56
:10149000440C07EB8C0C9CF80710DCF80820D97181
:1014A0009A609CF906206100002A9A713DDBBCF825
:1014B00004E05FEA4E5E05D50EF5FF1E0EF5FF5EF9
:1014C0000EF11F0E6FF0070C0A194FEA6E5E9200C4
:1014D00002EB4E0208323A44ACEB030C6244C2F316
:1014E0004A026FEAC2426FEAD2429A801E4B2144FE
:1014F0001A7807EB81011C708A719DE77346D9B990
:10150000FF228EF806204BF60152AEF80420164C4E
:101510004AF6AA2294F800C01946C91B49414A4319
:10152000120D83F806C0227086E7104ADDE79EF9A7
:1015300006407346002CAADA0D4A0E4CD21A083A1D
:10154000C2F30A316FEA01516FEA115144EA5202C3
:10155000DA80998070E700BF6905002000ED00E0A7
:10156000110100105C0300200806002001BDFFFFF0
:101570009603002000F8FFFFF0B5EFF30585EDB20C
:10158000EFF3108C72B62649D1E8CF2F0123002A41
:10159000FAD1C1E8423F002AF6D1BFF35F8F214E56
:1015A00040F0010EB4684AF6AA2354F825701E4A8A
:1015B0000446A41A644163431B0D77455BB21BD0FC
:1015C00092F906409C421CD092F912409C4223D0D2
:1015D00092F91E409C4221D092F92A409C4208BFB9
:1015E00003240FD0114A0024157813708571C1E8C7
:1015F0008F4F8CF31088F0BDB2680D4C42F8254037
:10160000F0E7002404EB440402EB8402FF2494710D
:101610004BF601549480E5E70124F3E70224F1E757
:101620006905002000ED00E05C03002008060020B2
:1016300011010010014B0B4403607047600500204E
:1016400070B5104C104DAC420ED2FF26236863B12A
:10165000FFF712FE01462046FFF7ECFFA680BFF31E
:101660005F8F0834AC42F1D370BDFFF705FE014631
:101670002046FFF7DFFF2671BFF35F8F0834AC42CF
:10168000E4D370BDD4030020DC0300200D4B1A68A6
:10169000EFF3108172B6D2E8CFCF0120BCF1000F7A
:1016A000F9D1C2E84C0FBCF1000FF4D1BFF35F8F4A
:1016B00000221B68C3E88F2F81F3108840BF0020F1
:1016C00000217047F80500202DE9F04F2DED028B29
:1016D00085B0EFF30583DBB2103B9A0818BF0122F7
:1016E0004FF0010103F0030B18BFAF4DAF4B08BF24
:1016F000AF4D0BEB820253F8226001FA0BF205F5B5
:1017000041539FEDA78B01925A602FE0B3881C04D0
:1017100040F19380B379002B40F0DD80B6F90820CA
:10172000002AC0F21E81736902EB420203EBC2037E
:10173000D3E90247B7F1FF3F08BFB4F1FF3F0ED036
:1017400005EB8B01AB6A0A69D21AE31A934205D3FF
:1017500001232A6A03FA0BF3134200D10C612846D5
:1017600000F038FBA042B941C0F2FB80B6F9083066
:10177000019A002B0093EA63C8DBD6F8148003EBD0
:101780004309284608EBC907D7E9024A00F022FBC3
:10179000A04271EB0A01B9DBBAF1000FC0F2C380BD
:1017A000D7E90431834A934200F0ED807A88B6F994
:1017B000080092B242EA0040984702460B4652EABD
:1017C000030100F0B080002B80F2D180B4EB020E58
:1017D0006AEB030A38F93930C7E902EA002B95DBD6
:1017E000716903EB430201EBC202D2E90270BE450C
:1017F0007AEB000C4FEA430288DBB4462CF8083F32
:1018000006E003EB430001EBC0005A00D0E9027090
:10181000BE451A447AEB000001EBC20404DB31F947
:101820003230A446002BECDA28F83930009BACF8B3
:101830000030B3881C043FF56DAF3369EFF31082BD
:1018400072B6D3E8CF0F01210028FAD1C3E8401FB8
:101850000028F6D1BFF35F8F4FF6FF74B0880023E6
:10186000316900B2B480C1E88F3F82F3108898429A
:10187000FFF650AF0746A946746906F1080807EB62
:10188000470E04EBCE03D3E90250B6F90830C44644
:10189000002B13DBB246009704E034F9363094464F
:1018A000002B09DB03EB430604EBC602D2E902710D
:1018B000BD4270EB0101F0DA5646009FACF80070B3
:1018C00034F93E7024F83E30002FD8DAB3794D4613
:1018D000002B3FF423AF0023B371B6F9083006F1B3
:1018E0000808581C3DD01A46776903E08046591C09
:1018F0003FF416AF03EB430107EBC100B0F802C0A1
:101900001C461CF4004F9E4637F93130EED094420D
:1019100080ED028B05D0A8F80030328927F83120FD
:1019200034817246E3E738F8393033813369EFF3B5
:10193000108272B6D3E8CF0F01210028FAD1C3E894
:10194000401F0028F6D1BFF35F8F7388316928F8F4
:101950003930009B73800023C1E88F3F82F31088E9
:10196000D4E640BF05B0BDEC028BBDE8F08F284641
:10197000CDE9022300F02EFA029A039B10EB020E2F
:1019800043EB010A26E708460B69029198470028B5
:10199000C9D00299D1E9002311E700BFAFF300805D
:1019A000FFFFFFFFFFFFFFFF00800B40D805002077
:1019B00000000B40C91600102DE9F84F364C256980
:1019C0002DB1BDE8F84F0A213448FFF733BEDFF8E8
:1019D000E4800321404600F0EBF90326C4F80C80B4
:1019E000FFF74AFC4FF0504C2D4B26700344236107
:1019F000DCF800300F216370636961801D834FF054
:101A00000405A3F878504FF00505A3F890504FF067
:101A10000605A3F8A8504FF007050E214FF6FF72F8
:101A200008274FF00A0EA3F8C0504FF001094FF0FD
:101A30000C0C4FF0020B4FF0090A0D204FF00B0574
:101A4000A3F868111749A280A3F808E1A160A3F8E0
:101A500048B0A3F8F0A0A3F82051A3F838C1A3F828
:101A60005001A3F83090A3F86060A3F8D8701A80F2
:101A70000D4B3046C8F820700C49DC60FFF752FC73
:101A800049463046FFF738FC094B0A211F640348DA
:101A9000BDE8F84FFFF7CEBDA4030020F8050020F5
:101AA00060050020FFFF1000D8050020C9160010B7
:101AB00000200B4000000B400146F0B50069EFF339
:101AC000108772B6D0E8CF5F0124002DFAD1C0E8AC
:101AD000454F002DF6D1BFF35F8FB1F902E04C699D
:101AE0000EEB4E0CBEF1000F4FEACC05086904EB7B
:101AF000CC0C3CDB665B4E800026C0E88F6F87F322
:101B00001088BCF80200CCE902230130C0F30E00BB
:101B1000012838BF0120059BACF80200CCF810303A
:101B2000069B40EA0E40CCF814300B69EFF31082AC
:101B300072B6D3E8CFCF0127BCF1000FF9D1C3E8CB
:101B40004C7FBCF1000FF4D1BFF35F8F8B886353E0
:101B5000A1F804E00B69C3E88F6F82F310880122BB
:101B6000CB68097803F501538A405A60F0BD002321
:101B7000C0E88F3F87F310884FF0FF30F0BD00BF03
:101B800003464089B0EB214F37DD58690A1402EB58
:101B9000420210B500EBC2001C69EFF3108C72B664
:101BA000D4E8CFEF0122BEF1000FF9D1C4E84E2FE7
:101BB000BEF1000FF4D1BFF35F8F428889B292B2B9
:101BC0008A4207D000221B69C3E88F2F8CF310884C
:101BD000002010BD42F40042428001210022186919
:101BE0009971C0E88F2F8CF310881C78DA6808464A
:101BF00002F50153A140596010BD0020704700BF9D
:101C00002DE9F04182B0064600F0ECF84FF47A730B
:101C100004464FF0FF306FF00042E6FB0341A04264
:101C200072EB01033ABF044615460D46A61F45F167
:101C3000FF37B44275EB07033CBF0026374600F080
:101C4000D1F8301A67EB0101012871F1000106DAC1
:101C50002046294602B0BDE8F04100F0FBB800F094
:101C6000C1F8864267EB010100290ADB0021174B0E
:101C70003246009316483B460191FFF71DFF0130A5
:101C8000E6D04FF0000C134A1349536A9F4204D820
:101C9000906AB042DCD29F42DAD10B68EFF3108039
:101CA00072B6D3E8CF8F5FF0010EB8F1000FF8D114
:101CB000C3E848EFB8F1000FF3D1BFF35F8F0B68B3
:101CC000C3E88FCF80F3108820BFDEE78D160010A9
:101CD000A403002000000B40F80500202DE9F0438C
:101CE00006460D4683B0EFF30584E4B23CB12D4BBC
:101CF0005A6AAA421CD2002003B0BDE8F0832A4FE2
:101D0000D7F80C9097F80080484600F063F808F187
:101D1000040859F828301B1A301A65EB0101984263
:101D200071F1000110DB20BF1E4B5A6AAA42E2D3B8
:101D300014BF012400249B6AB34234BF204644F000
:101D4000010003B0BDE8F08300F04CF8864265EB7B
:101D50000101002914DB154B3846CDE90034324629
:101D60002B46FFF7A9FE011E0ADD0E4B5A6AAA4256
:101D700016D39B6AB34211D30B48FFF701FFB6E7B6
:101D8000084B5C6AAC42B6D3641B18BF01249B6A43
:101D9000B34234BF204644F00100ADE7AA42EBD184
:101DA00020BFE9E700000B40A40300208D160010BF
:101DB00010B4054B054C064AA04214BF1846581CE7
:101DC0005DF8044BFFF72CBA8805002000800B401B
:101DD0008C2B00100346416A0A46986A596A8A4267
:101DE000FAD17047034B596A0A46986A596A914278
:101DF000FAD1704700000B4030B4154A536A9C4634
:101E0000946A536A6345FAD1021959414FF00005AB
:101E100028BF01250E4B5B6AB5B15A1C08BF1A4694
:101E200008D04FF0FF310A460948436A8B42FCD381
:101E30008B4207D1064902E0486A984202D1886A7B
:101E40009042F9D330BC70479942EDD8F0E700BF1B
:101E500000000B40074A536A9942FCD8994207D1C7
:101E6000044B02E05A6A914202D19A6A9042F9D830
:101E7000704700BF00000B40F8B5054606200E462F
:101E800000F0E4F8002842D0354A3648954214BFA5
:101E90004FF080624FF00062334B344902601A60A9
:101EA0008C6832EA0404FBD12D4B4FF48071EB1A9D
:101EB000B3FA83F32E4A5B09062022F8131000F0D0
:101EC000C5F8C300B3FBF6F30133DA0920D140268D
:101ED00001216962AA622F6BFB0722D42B460022E4
:101EE00053F82C1F062003F5805422602F6300F066
:101EF000ADF840F2013103228000B0FBF6F0EB6A4E
:101F000083F0700303F07E0323602963AA64F8BDA5
:101F10004FF6FE718A421BD922464FF6FF71154ECD
:101F2000D7E740F2013205F540531A636B6AAC6A99
:101F3000062004EB831400F089F80F4BA402A3FBE6
:101F40000023DB0A0021B4FBF3F0FFF755FFC5E7E0
:101F5000C3F34503114603EB82161A46B9E700BFE7
:101F60000080074000200240003002400000024094
:101F7000FC050020C0FF3F00757B2B8F00EB400C61
:101F80004FEA8C0C0CF1804C0CF5803CF0B51646F9
:101F9000DCF80420051FB2F5803F38BF4FF48032D3
:101FA000EDB238BFCCF80420012D2AD94FF40067D8
:101FB000254C0CF54052176054F82020B2B9DCF8DB
:101FC0000020012D82EA461202F0E0020CF5805654
:101FD00032602AD94FF4006144F820304FF4803346
:101FE0000CF500521160CCF80430F0BD6769B7FB06
:101FF000F2FE0EF1010E0EEB4E0EBEF1030EFCD200
:10200000DDE70129D2D103240CF540521460DCF83D
:102010000820D207FBD5DCF800200B4C82EA4612E0
:1020200002F0E0020CF5805632600122DCF800502C
:102030004D4005F00305356002FA01F1DCF8082097
:102040000A42FBD0C6E700BF8C050020014B53F8C5
:10205000200070478C05002070B4039D04682D0398
:1020600045EA03451B4B002CB3FBF1F3B2FBF3F63F
:102070001FDB194A194B904214BF4FF480424FF4B2
:102080000042174C1A6003F580531A60A36832EAC5
:102090000303FBD1212200F5405304330160866025
:1020A0001A600268002AFCDA0822C5601A6070BC57
:1020B0007047036803F03F038B42DAD18368C3F3B0
:1020C0000B03B342D5D1C36803F4EE23AB42D0D1A6
:1020D000EDE700BF001BB700008005400020024074
:1020E00000000240012300EB4000800000F180402E
:1020F00000F5841041600360704700BF0023DB8A55
:10210000002242E800F2520201D4102118470421B3
:10211000184700BF034AD2F82838002BFBD0BFF382
:102120005F8F704700000E400021044B044ABFF34C
:102130005F8F43F8041B9342F9D170470C080E409F
:102140002C080E4010B44FF48D704FF42A64064AE8
:10215000064B07491460D06019605368002BFCDA05
:102160005DF8044B704700BF0080044000A00440AD
:1021700000B0FA00704700BF08B50148FFF738F813
:10218000B02B001038B5054C054DAC4204D254F8C4
:10219000043B9847AC42FAD338BD00BF282B00104F
:1021A000682B001010B40748074C084B084A09492F
:1021B00004601A608B6832EA0303FBD15DF8044BBC
:1021C000704700BF002002407F3BEFEF003002402D
:1021D000F6FFF30300000240044BDB6CB3F5004F45
:1021E00003D14FF48022024BDA6470470000115093
:1021F000002011504FF0E022044BD2F8881D0B4311
:10220000C2F8883D10EE3004704700BF0303300071
:102210006FF06041044B054A19609368DB4333F06B
:102220006043FAD1704700BF003002400000024016
:1022300010B545F25320FFF761FFBDE8104003469B
:102240000420184710B545F25320FFF757FFBDE8AB
:102250001040034601201847FFF722B81449154BD8
:1022600070B55C1AA610442E324628BF4422124D87
:102270009200284600F0A0FBB4F5867F13D80F4AE1
:10228000C6F1440012D02B19410803EBC101C3E988
:10229000002208338B42FAD1C30704D520F0010095
:1022A000304445F82020064B9D6070BD4320F8E780
:1022B00000000010100100100000002011010010AB
:1022C00000ED00E0002370B52B4C82B0C4F88430E0
:1022D000FFF738FF0122294BDA63636C012BFCD135
:1022E0000321264A244B11639C6B012CFCD102264E
:1022F000052521460523224A22480096FFF7ACFE19
:1023000021462B46204A21480095FFF7A5FE0022D2
:10231000042031461E4BFFF731FE2146284600229D
:102320001C4BFFF72BFE0022082011461A4BFFF72B
:1023300025FE002209201146174BFFF71FFE002241
:1023400006201146134BFFF719FE0022114B072000
:102350001146FFF713FE0420FFF778FE00240F4B11
:10236000A3FB0035AD0CE0B229460134FFF7BAFEFD
:10237000062CF8D102B070BD0000014000300140D1
:10238000002F685900000540008C864700800540FA
:10239000001BB70080D1F008006CDC0283DE1B4319
:1023A00000B9704700F01CB910B5094B84B01C6827
:1023B0004CB1034600914FF0FF3203A90548A047F6
:1023C000012004B010BD00F04DF9204604B010BD4E
:1023D000BC050020A123001000BEFDE708B5FFF7F3
:1023E000FBFF00BF38B5064C064DFFF7CBFEAC42F5
:1023F00004D254F8043B9847AC42FAD338BD00BF2E
:10240000682B00106C2B0010036808461146184713
:102410002DE9F0411546427D07468846002A46D000
:10242000002D1DDD0B780A2B23D0012D4FF0000C61
:1024300018D04646012416F8012F21460A2A04F135
:10244000010422D0A542F6D165450BDC08EB05035B
:1024500013F8013CA3F10D03B3FA83F35B093B7559
:10246000BDE8F0813B68A5EB0C0108EB0C00984738
:10247000ECE7037D002BD8D1036802210F48984771
:10248000012DE3D04FF0010CD3E716F8013C0D2BE2
:10249000D8D08C4508EB0C00A1EB0C0101DA3B68AD
:1024A0009847022105483B689847A446CAE7294651
:1024B00040463B68BDE8F041184700BF883800102F
:1024C0002DE9F04782B00D4691461C460646FFF7BF
:1024D00089FC4FF0FF3C6FF000472E4A821841F113
:1024E0000003944577EB03013CBF62463B462A4814
:1024F00000F012FB6B1C804640D00CB3274F284BDA
:102500001C68B4B1B9F1000F1CD1DFF89C9001E058
:10251000246974B12368002BFAD0D9F800300BB1CC
:102520009C42F5D120462A463146B8472469002C02
:10253000F0D1B8F1000F26D1284602B0BDE8F087EF
:10254000184FDCE74FF00A0ADFF85C9002E02469DC
:10255000002CEED02368002BF9D0D9F800300BB155
:10256000A342F4D12A4631462046B84701222046EC
:102570000DF107018DF807A0B847E8E7304600F0F5
:1025800091FA0546B9E7044800F0BEFA284602B0C1
:10259000BDE8F08740420F00D40300201124001052
:1025A000B405002009240010B8050020084A13686B
:1025B00023B90AE003F110021B6933B18342F9D158
:1025C00029B9186910601961704701B1106070472E
:1025D000B405002008B500F033F9012008BD00BFA4
:1025E000F0B583B006468DF80700FFF7FBFB4FF010
:1025F000FF356FF00044174A821841F100039542FD
:1026000074EB03013CBF23462A46134800F084FACA
:10261000124B07461C689CB1114D01E024697CB146
:102620002368002BFAD02B680BB19C42F6D12046D0
:1026300001220DF10701FFF7EBFE2469002CEFD119
:1026400017B9304603B0F0BD034800F05DFA3046DC
:1026500003B0F0BD40420F00D4030020B4050020B9
:10266000B805002038B5044600F01CFA01230546E1
:102670001A4620462946FFF723FF084B1C682CB159
:1026800063682BB198472469002CF9D1284638BDDE
:102690002469002CF4D1284638BD00BFB4050020C1
:1026A000B1F1000C1DDD0F4A0F4B126830B5D31A83
:1026B000B3FA83F30D240D4D5B09411E35F913E088
:1026C0008C4411F8010F864506D093699B06FCD413
:1026D00061451060F5D130BD93699D06FCD414604E
:1026E000F3E770470006002000800740FC0500204B
:1026F000224BB1F1000C10B41C682EDD0346002003
:102700001F4A591E12689369DB0617D4013093697A
:10271000DB06FCD41368844501F8013FF3D14CB1CA
:1027200050211346916353F8342F02F0380203F519
:1027300080531A6060465DF8044B70474CB15021DD
:102740001346916353F8342F02F0380203F5805397
:102750001A6078B15DF8044B70475CB1084B5021AA
:102760001A681346916353F8342F02F0380203F5C8
:1027700080531A606FF00200DDE700BF8005002083
:1027800000060020054B1B6833B10021044A0548B0
:102790001268006891631847704700BF80050020E9
:1027A0000006002084050020024B1A6893691B076D
:1027B000FCD4704700060020F8B51C4F1C4D3A6849
:1027C0001C4EAA4214BF212522250446D6F800C07B
:1027D00018B1BCF1000F10D0F8BDBCF1000FFBD058
:1027E000014690632846FEF787FD28461249FEF70A
:1027F000C9FD124B34601C60F8BD0B460F4A0E49F0
:10280000306028461360FEF78DFD01212846FEF753
:1028100073FD3A6850211346916353F8342F02F048
:10282000380203F580531A60F8BD00BF000600208F
:1028300000800740800500208527001084050020C7
:1028400010B50E490E4C0F480F4A104B007821600E
:102850000020022112781B78FEF764FC022101207F
:10286000FEF760FC4FF4E1312068FFF705FBBDE89F
:10287000104001210648FFF799BE00BF0000074045
:1028800000060020D4380010D0380010CC380010DA
:10289000BC030020384B2DE9F047984214BF4FF499
:1028A00000234FF4802307460E46344D344C354AFE
:1028B0002B602360956833EA0505FBD10620FFF7FE
:1028C000C5FB39464FF0020A51F804EF4FEAD659DA
:1028D0004FEA462C01F5405863464A4654460EEAF4
:1028E0000A0EC8F800A008E013EB0C0304F1020480
:1028F00042EB0902B4F5807F03D0984275EB020ADF
:10290000F2D24FF48073C4EB042201E0012B30D0EB
:10291000B0FBF2FC66459946A2EB040203F1FF33DB
:10292000F4D209FB04F91D023C6102243B46032654
:102930003A6801F500516A4007F5805C02F47F4275
:10294000CCF80020C1F800E07D68C8F8004053F8DA
:10295000242B254082F0070202F0CF0203F500533A
:10296000CCF80020B0FBF9F00D601E600C60BDE8F3
:10297000F087A146D8E700BF0000084000200240D1
:102980000030024000000240012307480749084A7E
:1029900003600B609368D907FCD50123054A1360D7
:1029A0001368DB05FCD57047002002400030024070
:1029B0000000024000000A40844641EA000313F090
:1029C000030349D1403A23D30B6803604B6843604B
:1029D0008B688360CB68C3600B6903614B6943619B
:1029E0008B698361CB69C3610B6A03624B6A436283
:1029F0008B6A8362CB6AC3620B6B03634B6B43636B
:102A00008B6B8363CB6BC36340304031403ADBD286
:102A100030320BD30B6803604B6843608B68836074
:102A2000CB68C36010301031103AF3D20C3205D3AA
:102A300051F8043B40F8043B043AF9D2043208D080
:102A4000D2071CBF11F8013B00F8013B01D30B88F2
:102A500003806046704700BF082A13D38B07B1D0AC
:102A600010F00303AED0C3F10403D21ADB071CBF7E
:102A700011F8013B00F8013BA4D331F8023B20F8E8
:102A8000023B9FE7043AD9D3013A11F8013B00F821
:102A9000013BF9D20B7803704B7843708B788370CD
:102AA0006046704720F0030110F00300C0F1000001
:102AB00051F8043B00F1040C4FEACC0C6FF000021B
:102AC0001CBF22FA0CF213434FF0010C4CEA0C2C01
:102AD0004CEA0C4CA3EB0C0222EA030212EACC12E1
:102AE00004BF51F8043B0430F4D0C2F1000102EA03
:102AF0000102B2FA82F2C2F11F0200EBD20070476B
:102B0000F8B500BF000000005FF800F0E50100200C
:102B10005FF800F0B10200205FF800F07D010020B6
:102B20005FF800F02102002031220010A5210010E2
:102B3000D9210010C52200101122001029210010F7
:102B40005922001015210010411600105D220010BE
:102B5000B91900107521001045220010F521001050
:0C2B600091120010B912001011020010B8
:102B6C004D6F746F727A616F000000000A2A2A2A76
:102B7C002050414E4943202A2A2A0A000A0000000C
:102B8C00486172647761726520616C61726D202599
:102B9C006420616C726561647920636C61696D6538
:102BAC006400000048617264206173736572740084
:102BBC0052656C6561736500626F6F74325F77325A
:102BCC003571303830000000322E322E30000000CB
:102BDC007069636F32000000696C693933343100FD
:102BEC004D61722031312032303236005541525411
:102BFC0020737464696E00005541525420737464E0
:102C0C006F7574005541525420737464696E202F93
:102C1C00207374646F7574000100000001000000E3
:102C2C000000000000000000000000000100000097
:102C3C000100000000000000000000000000000087
:102C4C000100000001000000010000000000000075
:102C5C000000000001000000020000000000000065
:102C6C000003800000000000000005600000000070
:102C7C00000000091C000000000000000903000017
:102C8C0000000000001100C0000000000000110056
:102C9C0030000000000000210010000000000000C7
:102CAC0021000E0000000000002080000000000049
:102CBC000000408000000000000020808000000028
:102CCC000000002000400000000000004000200038
:102CDC0000000000008000200000000000008000C8
:102CEC0010000000000001000010000000000002B5
:102CFC0000000800000000000200000400000000BA
:102D0C0000040000020000000000040000010000AC
:102D1C00000000080000008000000000100000000F
:102D2C0060000000002000000010000000004000C7
:102D3C000000080000000040000000070000000038
:102D4C008000000000E000000300000000001F8075
:102D5C00000400000000000040000800000000001B
:102D6C000038003000000000000007FCC00000002C
:102D7C00000000000300000000000FFF80000000B6
:102D8C00000000300060000000000000C0001800CF
:102D9C000000000007000006000000000008000012
:102DAC000100000000001000000080000000002066
:102DBC000000004000000000400000002000000067
:102DCC00008000000018000000010000000004005A
:102DDC0000000200000000040000000200000000DF
:102DEC000300000004000000000080000008000048
:102DFC000000006000001000000000002000002017
:102E0C00000000000010000020000000000008007E
:102E1C000040000000000004000040000000000022
:102E2C000200008000000000000100008000000093
:102E3C0000000100208000000000004100608000C4
:102E4C000000000040808080000000000040808076
:102E5C008000000000002081000000000000001035
:102E6C0081000000000000001002000000000000C3
:102E7C00000804000000000000000808000000002A
:102E8C0000000004100000000000000006200000FC
:102E9C000000000000024000000000000000018063
:102EAC00000000000000000080000000FC0000009A
:102EBC000000000003C000000000000040300000D3
:102ECC0000000000400C00000000000040038000E7
:102EDC00000000004000C000000000004000200086
:102EEC00000000004000180000000000400004003A
:102EFC000000000040000200000000004000010043
:102F0C000000000040000080000000004000004075
:102F1C0000000000400000200000000040000010F5
:102F2C000000000040000008000000004000000409
:102F3C000000000040000003000000004000000002
:102F4C008000000040000000600000004000000015
:102F5C0010000000400000000800000040000000CD
:102F6C00060000004000000001800000400000004E
:102F7C000040000040000000002000004000000065
:102F8C000010000040000000001000004000000095
:102F9C000008000040000000000400004000000099
:102FAC000002000040000000000100004000000092
:102FBC0000008000400000000000400020000000E5
:102FCC000000200020000000000010002000000085
:102FDC00000010002000000000000800200000008D
:102FEC00000004002000000000000200200000008F
:102FFC000000020020000000000001002000000082
:10300C0000000080200000000000006010000000A4
:10301C000000001010000000000000080800000074
:10302C000000001008000000000000200800000054
:10303C0000000060040000000000004004000000DC
:10304C0000000040040000000000004004000000EC
:10305C00000000800400000000000080040000005C
:10306C000000010004000000000002000400000049
:10307C000000020004000000000004000400000036
:10308C000000040004000000000008000400000020
:10309C0000001000040000000000100004000000FC
:1030AC00000010000400000000006000040000009C
:1030BC00000040000400000000018000040000003B
:1030CC0000020000040000000002000004000000E8
:1030DC0000040000040000000018000004000000C0
:1030EC00002000000400000000C0000004000000EC
:1030FC0001000000040000000600000004000000B5
:10310C001800000002000001E00000000200000EA8
:10311C00000000000200003000000000020000402F
:10312C0000000000020003800000000002001C00F0
:10313C00000000000200600000000000020180009E
:10314C000000000002020000000000000204000069
:10315C000000000002080000000000000230000027
:10316C00000000000240000000000000028000008F
:10317C000000000003000000000000000000000040
:10318C000000007C0000000000000007820000002E
:10319C0000000000180100000000000000200100E9
:1031AC00000000000001C00100000000000006004B
:1031BC001100000000000000001100800000000061
:1031CC0000001080C00000000000006080200000A3
:1031DC000000000040802000000000000040801033
:1031EC0000000000000080801000000000000100C2
:1031FC00801000000000000200400C0000000000E5
:10320C000400400200000000000400400100000027
:10321C00000008004000C000000000180040002022
:10322C0000000000200020001000000000400020E2
:10323C00000C0000000380002000020000000C00C5
:10324C000020000180000030000010000060000031
:10325C00C000001000001800030000001000000760
:10326C00807C000000000000007F80000000000057
:10327C000000003E0000000000000003C1FFF00051
:10328C00000000003C00000F0000000000C0000027
:10329C0000C00000000080000000300000000700AB
:1032AC000000000E000000180000000001C000002B
:1032BC002000000000003000004000000000001C56
:1032CC000000400000000000020000400000000070
:1032DC0000010080800000000000010080800000E0
:1032EC00000000008041000000000000008042004F
:1032FC000000000000004042000000000000004000
:10330C0044000000000000004048000000000000E5
:10331C0000204800000000000000204800000000D1
:10332C0000000000580000000000000000580100E0
:10333C00000000000000400E0000000000000040F3
:10334C00300000000000000040C000000000000041
:10335C00007F0000000000000000000000000000E2
:10336C000000080000000000001000000000000039
:10337C00300000000000005000000000000390002E
:10338C0000000000021000000000000C1000000003
:10339C00000070100000000000801000000000030E
:1033AC000010000000003C001000000000C00010E5
:1033BC0000000003000010000000040000200000CA
:1033CC00000800002000000010000020000000E0B9
:1033DC00000020000001000000200000010000009F
:1033EC002000000600000020000008000000200063
:1033FC000010000000400000100000004000002001
:10340C0000000080000040000000800001800000EF
:10341C00008000010000000080000200000000801D
:10342C00000400000000800008000000008000087C
:10343C000000000080001000000000800020000050
:10344C000000800020000000008000C00000000090
:10345C008001000000000080030000000001000C4F
:10346C00000000000100100000000001002000001E
:10347C00000001004000000000010080000000007E
:10348C00020080000000000200C0000000000200EA
:10349C0020000000000200180000000002000400E0
:1034AC000000000400030000000004000080000085
:1034BC000004000040000000040000300000000484
:1034CC0000000800000004000006000000040000DA
:1034DC0001000000040000008000000400000060F7
:1034EC0000000400000018000008000000040000A8
:1034FC00080000000200000800000001000010009D
:10350C0000000080001000000000400010000000CF
:10351C000030001000000000080020000000000433
:10352C00002000000000020020000000000100202C
:10353C00000000000080400000000000404000003F
:10354C0000000020400000000000104000000000BF
:10355C00000840000000000008800000000000048B
:10356C0080000000000004800000000000038000C8
:10357C00000000000080000018EF03038002CF035E
:10358C0000C130ED0464031281E803850078CB059B
:10359C00392C003402F70120EA020000C00123C1DB
:1035AC000110C5023E28C701863601483701003A92
:1035BC000155B1020018B603088227F2010026015A
:1035CC0001E00F0F312B0C0E084EF1370710030ED4
:1035DC000900E10F000E1403110731C148080F0C4C
:1035EC0031360F118029800000000000000000001F
:1035FC005F000000000700070000147F147F140018
:10360C00242A7F2A120023130864620036495522AB
:10361C005000000503000000001C22410000004186
:10362C00221C000014083E08140008083E0808007C
:10363C000050300000000808080808000060600016
:10364C0000002010080402003E5149453E00004293
:10365C007F4000004261514946002141454B3100F9
:10366C001814127F10002745454539003C4A49493A
:10367C0030000171090503003649494936000649F5
:10368C0049291E00003636000000005636000000A6
:10369C0008142241000014141414140000412214C4
:1036AC000800020151090600324979413E007E11A1
:1036BC0011117E007F49494936003E4141412200AB
:1036CC007F4141221C007F49494941007F0909097A
:1036DC0001003E4149497A007F0808087F000041FB
:1036EC007F4100002040413F01007F08142241002F
:1036FC007F40404040007F020C027F007F04081096
:10370C007F003E4141413E007F09090906003E41D0
:10371C0051215E007F09192946004649494931006B
:10372C0001017F0101003F4040403F001F2040202D
:10373C001F003F4038403F00631408146300070823
:10374C0070080700615149454300007F414100006A
:10375C000204081020000041417F00000402010215
:10376C00040040404040400000010204000020548E
:10377C00545478007F444444380038444444200076
:10378C00384444447F00385454541800087E0901CE
:10379C0002000C5252523E007F0804047800004490
:1037AC007D4000002040443D00007F102844000074
:1037BC0000417F4000007C04180478007C0804045D
:1037CC0078003844444438007C141414080008145D
:1037DC0014187C007C08040408004854545420003D
:1037EC00043F444020003C4040207C001C204020F2
:1037FC001C003C4030403C004428102844000C5035
:10380C0050503C004464544C4400000836410000C5
:10381C0000007F0000000041360800000201020495
:10382C00020000000000000006005250D3F0754268
:10383C00BC2B001006005250E182887FC42B001074
:10384C0006005250ABB36053D42B001006005250FC
:10385C00BBFF3CB6DC2B001006005250861C03024A
:10386C00E42B0010060052505422A29DEC2B0010A9
:10387C0005005250DE65F468B83B00100D0A0000DC
:10388C000600525053B4F4A1102C001008005250F2
:0C389C00120000000800525092100000C2
:0838A80010F1FF7F0100000098
:1038B00034380010403800104C38001058380010D0
:1038C00064380010703800107C380010A0380010E8
:0838D000983800108C3800103C
:1038D8004FF050412DE9F0410027044616461D4699
:1038E800D1F8008008E0C1E88F7F8CF3108830465B
:1038F800294600F005F9E8B92168EFF3108C72B693
:10390800D1E8CF2F0123002AFAD1C1E8423F002A8B
:10391800F6D1BFF35F8F94F904302168002BE2DA07
:10392800002384F80480C1E88F3F8CF310880120BD
:10393800BDE8F0810020BDE8F08100BF30B5046823
:10394800EFF3108C72B6D4E8CFEF0125BEF1000F6B
:10395800F9D1C4E84E5FBEF1000FF4D1BFF35F8F19
:1039680090F904400568002C10DB0021C5E88F1F82
:103978008CF310884FF0504595F90050A54201D1BD
:10398800084630BDBDE83040FFF7A2BF4FF05042B7
:10399800126800230271C5E88F3F8CF3108801205C
:1039A80030BD00BF0368EFF3108272B6D3E8CFCF03
:1039B8000121BCF1000FF9D1C3E84C1FBCF1000F85
:1039C800F4D1BFF35F8F4FF0FF0C0023016880F83C
:1039D80004C0C1E88F3F82F3108840BF704700BF22
:1039E800844610466AB3013900B501EB020EDCF8D3
:1039F8000C309B07FBD511F8013F7145CCF8083016
:103A0800F5D1DCF80C30590705D5DCF80830DCF8BE
:103A18000C305907F9D4DCF80C30DA0606D5DCF896
:103A28000C30DA06F7D401E0DCF80830DCF80C30AA
:103A38005B07F9D40123CCF820305DF804FBDCF8EF
:103A48000830DCF80C305907F9D4DCF80C30DA0609
:103A580006D5DCF80C30DA06F7D401E0DCF80830DB
:103A6800DCF80C305B07F9D40123CCF82030704720
:103A7800844610466AB3023900B501EB420EDCF801
:103A88000C309B07FBD531F8023F7145CCF8083064
:103A9800F5D1DCF80C30590705D5DCF80830DCF82E
:103AA8000C305907F9D4DCF80C30DA0606D5DCF806
:103AB8000C30DA06F7D401E0DCF80830DCF80C301A
:103AC8005B07F9D40123CCF820305DF804FBDCF85F
:103AD8000830DCF80C305907F9D4DCF80C30DA0679
:103AE80006D5DCF80C30DA06F7D401E0DCF808304B
:103AF800DCF80C305B07F9D40123CCF82030704790
:103B08005FF800F0DD1C0010130012001000160012
:103B18001100000000000840FFFF01100000000035
:103B2800000001000000000000000000000002008A
:103B3800000000000000000000000300000000007A
:103B4800000000000000FF000000000001B5486808
:103B580001318E460047704609380149884701BD42
:103B680079150010000000000000000000000000AF
:103B78000000000000000000E0030020A126001063
:103B8800A9270010F1260010B92700100000000036
:0C3B980000010000000000000000000020
:103BA400D3DEFFFFFE010000FF01000094C5FFFF0C
:043BB400793512ABA2
:040000051000014D99
:00000001FF
